{
  "contractName": "AttendanceSystem",
  "abi": [
    {
      "inputs": [],
      "stateMutability": "nonpayable",
      "type": "constructor"
    },
    {
      "anonymous": false,
      "inputs": [
        {
          "indexed": false,
          "internalType": "uint256",
          "name": "classId",
          "type": "uint256"
        },
        {
          "indexed": true,
          "internalType": "address",
          "name": "user",
          "type": "address"
        },
        {
          "indexed": false,
          "internalType": "bool",
          "name": "isPresent",
          "type": "bool"
        },
        {
          "indexed": false,
          "internalType": "uint256",
          "name": "timestamp",
          "type": "uint256"
        }
      ],
      "name": "AttendanceMarked",
      "type": "event"
    },
    {
      "anonymous": false,
      "inputs": [
        {
          "indexed": false,
          "internalType": "uint256",
          "name": "classId",
          "type": "uint256"
        }
      ],
      "name": "ClassApproved",
      "type": "event"
    },
    {
      "anonymous": false,
      "inputs": [
        {
          "indexed": false,
          "internalType": "uint256",
          "name": "classId",
          "type": "uint256"
        },
        {
          "indexed": false,
          "internalType": "string",
          "name": "name",
          "type": "string"
        },
        {
          "indexed": false,
          "internalType": "address",
          "name": "teacher",
          "type": "address"
        }
      ],
      "name": "ClassPending",
      "type": "event"
    },
    {
      "anonymous": false,
      "inputs": [
        {
          "indexed": false,
          "internalType": "uint256",
          "name": "classId",
          "type": "uint256"
        }
      ],
      "name": "ClassRejected",
      "type": "event"
    },
    {
      "anonymous": false,
      "inputs": [
        {
          "indexed": false,
          "internalType": "uint256",
          "name": "classId",
          "type": "uint256"
        },
        {
          "indexed": false,
          "internalType": "address",
          "name": "student",
          "type": "address"
        }
      ],
      "name": "StudentAdded",
      "type": "event"
    },
    {
      "inputs": [],
      "name": "classCount",
      "outputs": [
        {
          "internalType": "uint256",
          "name": "",
          "type": "uint256"
        }
      ],
      "stateMutability": "view",
      "type": "function",
      "constant": true
    },
    {
      "inputs": [
        {
          "internalType": "uint256",
          "name": "",
          "type": "uint256"
        }
      ],
      "name": "classes",
      "outputs": [
        {
          "internalType": "string",
          "name": "name",
          "type": "string"
        },
        {
          "internalType": "address",
          "name": "teacher",
          "type": "address"
        },
        {
          "internalType": "bool",
          "name": "isApproved",
          "type": "bool"
        }
      ],
      "stateMutability": "view",
      "type": "function",
      "constant": true
    },
    {
      "inputs": [],
      "name": "owner",
      "outputs": [
        {
          "internalType": "address",
          "name": "",
          "type": "address"
        }
      ],
      "stateMutability": "view",
      "type": "function",
      "constant": true
    },
    {
      "inputs": [],
      "name": "pendingClassCount",
      "outputs": [
        {
          "internalType": "uint256",
          "name": "",
          "type": "uint256"
        }
      ],
      "stateMutability": "view",
      "type": "function",
      "constant": true
    },
    {
      "inputs": [
        {
          "internalType": "uint256",
          "name": "",
          "type": "uint256"
        }
      ],
      "name": "pendingClasses",
      "outputs": [
        {
          "internalType": "string",
          "name": "name",
          "type": "string"
        },
        {
          "internalType": "address",
          "name": "teacher",
          "type": "address"
        },
        {
          "internalType": "bool",
          "name": "isApproved",
          "type": "bool"
        },
        {
          "internalType": "bool",
          "name": "isProcessed",
          "type": "bool"
        },
        {
          "internalType": "bool",
          "name": "isRejected",
          "type": "bool"
        }
      ],
      "stateMutability": "view",
      "type": "function",
      "constant": true
    },
    {
      "inputs": [
        {
          "internalType": "string",
          "name": "_name",
          "type": "string"
        }
      ],
      "name": "createClass",
      "outputs": [],
      "stateMutability": "nonpayable",
      "type": "function"
    },
    {
      "inputs": [],
      "name": "getPendingClasses",
      "outputs": [
        {
          "internalType": "uint256[]",
          "name": "",
          "type": "uint256[]"
        },
        {
          "internalType": "string[]",
          "name": "",
          "type": "string[]"
        },
        {
          "internalType": "address[]",
          "name": "",
          "type": "address[]"
        }
      ],
      "stateMutability": "view",
      "type": "function",
      "constant": true
    },
    {
      "inputs": [],
      "name": "getApprovedClasses",
      "outputs": [
        {
          "internalType": "uint256[]",
          "name": "",
          "type": "uint256[]"
        },
        {
          "internalType": "string[]",
          "name": "",
          "type": "string[]"
        },
        {
          "internalType": "address[]",
          "name": "",
          "type": "address[]"
        }
      ],
      "stateMutability": "view",
      "type": "function",
      "constant": true
    },
    {
      "inputs": [
        {
          "internalType": "uint256",
          "name": "_pendingClassId",
          "type": "uint256"
        }
      ],
      "name": "approveClass",
      "outputs": [],
      "stateMutability": "nonpayable",
      "type": "function"
    },
    {
      "inputs": [],
      "name": "getAdmin",
      "outputs": [
        {
          "internalType": "address",
          "name": "",
          "type": "address"
        }
      ],
      "stateMutability": "view",
      "type": "function",
      "constant": true
    },
    {
      "inputs": [
        {
          "internalType": "uint256",
          "name": "_pendingClassId",
          "type": "uint256"
        }
      ],
      "name": "rejectClass",
      "outputs": [],
      "stateMutability": "nonpayable",
      "type": "function"
    },
    {
      "inputs": [
        {
          "internalType": "uint256",
          "name": "_classId",
          "type": "uint256"
        },
        {
          "internalType": "address",
          "name": "_student",
          "type": "address"
        }
      ],
      "name": "addStudent",
      "outputs": [],
      "stateMutability": "nonpayable",
      "type": "function"
    },
    {
      "inputs": [
        {
          "internalType": "uint256",
          "name": "_classId",
          "type": "uint256"
        },
        {
          "internalType": "bool",
          "name": "_isPresent",
          "type": "bool"
        },
        {
          "internalType": "string",
          "name": "_signature",
          "type": "string"
        }
      ],
      "name": "markAttendance",
      "outputs": [],
      "stateMutability": "nonpayable",
      "type": "function"
    },
    {
      "inputs": [
        {
          "internalType": "uint256",
          "name": "_classId",
          "type": "uint256"
        },
        {
          "internalType": "address",
          "name": "_student",
          "type": "address"
        }
      ],
      "name": "getAttendanceCount",
      "outputs": [
        {
          "internalType": "uint256",
          "name": "",
          "type": "uint256"
        }
      ],
      "stateMutability": "view",
      "type": "function",
      "constant": true
    },
    {
      "inputs": [
        {
          "internalType": "uint256",
          "name": "_classId",
          "type": "uint256"
        },
        {
          "internalType": "address",
          "name": "_student",
          "type": "address"
        },
        {
          "internalType": "uint256",
          "name": "index",
          "type": "uint256"
        }
      ],
      "name": "getAttendanceRecord",
      "outputs": [
        {
          "internalType": "bool",
          "name": "",
          "type": "bool"
        },
        {
          "internalType": "uint256",
          "name": "",
          "type": "uint256"
        }
      ],
      "stateMutability": "view",
      "type": "function",
      "constant": true
    },
    {
      "inputs": [
        {
          "internalType": "uint256",
          "name": "_classId",
          "type": "uint256"
        }
      ],
      "name": "getStudents",
      "outputs": [
        {
          "internalType": "address[]",
          "name": "",
          "type": "address[]"
        }
      ],
      "stateMutability": "view",
      "type": "function",
      "constant": true
    },
    {
      "inputs": [],
      "name": "getTotalClasses",
      "outputs": [
        {
          "internalType": "uint256",
          "name": "",
          "type": "uint256"
        }
      ],
      "stateMutability": "view",
      "type": "function",
      "constant": true
    }
  ],
  "bytecode": "0x608060405234801561001057600080fd5b50336000806101000a81548173ffffffffffffffffffffffffffffffffffffffff021916908373ffffffffffffffffffffffffffffffffffffffff160217905550613324806100606000396000f3fe608060405234801561001057600080fd5b506004361061010b5760003560e01c80638a7dc32b116100a2578063cb5e8acb11610071578063cb5e8acb146102aa578063df01b764146102c6578063f358b393146102fa578063fea43b791461031a578063feed14df1461034b5761010b565b80638a7dc32b146102365780638da5cb5b14610252578063a850c18014610270578063ab9963171461028c5761010b565b80636e9960c3116100de5780636e9960c31461019857806375c2f8f0146101b6578063764c8856146101e6578063817dbe9f146102045761010b565b806302928820146101105780630ed099d31461012c578063521eb9da1461015c578063557e7a861461017c575b600080fd5b61012a600480360381019061012591906121f0565b610369565b005b610146600480360381019061014191906122bd565b61070a565b604051610153919061230c565b60405180910390f35b610164610768565b604051610173939291906125ed565b60405180910390f35b61019660048036038101906101919190612639565b610b67565b005b6101a0610d97565b6040516101ad9190612675565b60405180910390f35b6101d060048036038101906101cb9190612639565b610dc0565b6040516101dd9190612690565b60405180910390f35b6101ee610e64565b6040516101fb919061230c565b60405180910390f35b61021e60048036038101906102199190612639565b610e6a565b60405161022d9392919061270b565b60405180910390f35b610250600480360381019061024b9190612749565b610f49565b005b61025a611107565b6040516102679190612675565b60405180910390f35b61028a600480360381019061028591906122bd565b61112b565b005b610294611464565b6040516102a1919061230c565b60405180910390f35b6102c460048036038101906102bf9190612639565b61146a565b005b6102e060048036038101906102db9190612639565b611788565b6040516102f1959493929190612792565b60405180910390f35b61030261188d565b604051610311939291906125ed565b60405180910390f35b610334600480360381019061032f91906127ec565b611bac565b60405161034292919061283f565b60405180910390f35b610353611cd0565b604051610360919061230c565b60405180910390f35b6001600084815260200190815260200160002060010160149054906101000a900460ff166103cc576040517f08c379a00000000000000000000000000000000000000000000000000000000081526004016103c3906128b4565b60405180910390fd5b6001600084815260200190815260200160002060030160003373ffffffffffffffffffffffffffffffffffffffff1673ffffffffffffffffffffffffffffffffffffffff16815260200190815260200160002060009054906101000a900460ff1661046c576040517f08c379a000000000000000000000000000000000000000000000000000000000815260040161046390612920565b60405180910390fd5b600061047784611cda565b60405160200161048791906129c8565b604051602081830303815290604052805190602001206040516020016104ad9190612a61565b604051602081830303815290604052805190602001209050600082905060006104d68383611e3b565b90503373ffffffffffffffffffffffffffffffffffffffff168173ffffffffffffffffffffffffffffffffffffffff1614610546576040517f08c379a000000000000000000000000000000000000000000000000000000000815260040161053d90612ad3565b60405180910390fd5b60006001600088815260200190815260200160002060050160003373ffffffffffffffffffffffffffffffffffffffff1673ffffffffffffffffffffffffffffffffffffffff16815260200190815260200160002054905060405180604001604052808715158152602001428152506001600089815260200190815260200160002060040160003373ffffffffffffffffffffffffffffffffffffffff1673ffffffffffffffffffffffffffffffffffffffff168152602001908152602001600020600083815260200190815260200160002060008201518160000160006101000a81548160ff021916908315150217905550602082015181600101559050506001600088815260200190815260200160002060050160003373ffffffffffffffffffffffffffffffffffffffff1673ffffffffffffffffffffffffffffffffffffffff16815260200190815260200160002060008154809291906106aa90612b22565b91905055503373ffffffffffffffffffffffffffffffffffffffff167fa35b9f0b85df0ed76d7c5c596c4d723b414714711906f27a7b390e2cfd097ce68888426040516106f993929190612b6b565b60405180910390a250505050505050565b60006001600084815260200190815260200160002060050160008373ffffffffffffffffffffffffffffffffffffffff1673ffffffffffffffffffffffffffffffffffffffff16815260200190815260200160002054905092915050565b6060806060600080600190505b600454811161083957600073ffffffffffffffffffffffffffffffffffffffff166002600083815260200190815260200160002060010160009054906101000a900473ffffffffffffffffffffffffffffffffffffffff1673ffffffffffffffffffffffffffffffffffffffff161415801561081257506002600082815260200190815260200160002060010160159054906101000a900460ff16155b1561082657818061082290612b22565b9250505b808061083190612b22565b915050610775565b5060008167ffffffffffffffff811115610856576108556120c5565b5b6040519080825280602002602001820160405280156108845781602001602082028036833780820191505090505b50905060008267ffffffffffffffff8111156108a3576108a26120c5565b5b6040519080825280602002602001820160405280156108d657816020015b60608152602001906001900390816108c15790505b50905060008367ffffffffffffffff8111156108f5576108f46120c5565b5b6040519080825280602002602001820160405280156109235781602001602082028036833780820191505090505b509050600080600190505b6004548111610b5357600073ffffffffffffffffffffffffffffffffffffffff166002600083815260200190815260200160002060010160009054906101000a900473ffffffffffffffffffffffffffffffffffffffff1673ffffffffffffffffffffffffffffffffffffffff16141580156109cb57506002600082815260200190815260200160002060010160159054906101000a900460ff16155b15610b4057808583815181106109e4576109e3612ba2565b5b602002602001018181525050600260008281526020019081526020016000206000018054610a1190612c00565b80601f0160208091040260200160405190810160405280929190818152602001828054610a3d90612c00565b8015610a8a5780601f10610a5f57610100808354040283529160200191610a8a565b820191906000526020600020905b815481529060010190602001808311610a6d57829003601f168201915b5050505050848381518110610aa257610aa1612ba2565b5b60200260200101819052506002600082815260200190815260200160002060010160009054906101000a900473ffffffffffffffffffffffffffffffffffffffff16838381518110610af757610af6612ba2565b5b602002602001019073ffffffffffffffffffffffffffffffffffffffff16908173ffffffffffffffffffffffffffffffffffffffff16815250508180610b3c90612b22565b9250505b8080610b4b90612b22565b91505061092e565b508383839750975097505050505050909192565b60008054906101000a900473ffffffffffffffffffffffffffffffffffffffff1673ffffffffffffffffffffffffffffffffffffffff163373ffffffffffffffffffffffffffffffffffffffff1614610bf5576040517f08c379a0000000000000000000000000000000000000000000000000000000008152600401610bec90612c7e565b60405180910390fd5b600073ffffffffffffffffffffffffffffffffffffffff166002600083815260200190815260200160002060010160009054906101000a900473ffffffffffffffffffffffffffffffffffffffff1673ffffffffffffffffffffffffffffffffffffffff161415610c9b576040517f08c379a0000000000000000000000000000000000000000000000000000000008152600401610c9290612cea565b60405180910390fd5b6002600082815260200190815260200160002060010160159054906101000a900460ff1615610cff576040517f08c379a0000000000000000000000000000000000000000000000000000000008152600401610cf690612d56565b60405180910390fd5b60016002600083815260200190815260200160002060010160156101000a81548160ff02191690831515021790555060016002600083815260200190815260200160002060010160166101000a81548160ff0219169083151502179055507f69cb719a6efd90bc1ef83ee1115b795dc40e0f5d7320a3aa1dfbdd82a770671d81604051610d8c919061230c565b60405180910390a150565b60008060009054906101000a900473ffffffffffffffffffffffffffffffffffffffff16905090565b606060016000838152602001908152602001600020600201805480602002602001604051908101604052809291908181526020018280548015610e5857602002820191906000526020600020905b8160009054906101000a900473ffffffffffffffffffffffffffffffffffffffff1673ffffffffffffffffffffffffffffffffffffffff1681526020019060010190808311610e0e575b50505050509050919050565b60045481565b6001602052806000526040600020600091509050806000018054610e8d90612c00565b80601f0160208091040260200160405190810160405280929190818152602001828054610eb990612c00565b8015610f065780601f10610edb57610100808354040283529160200191610f06565b820191906000526020600020905b815481529060010190602001808311610ee957829003601f168201915b5050505050908060010160009054906101000a900473ffffffffffffffffffffffffffffffffffffffff16908060010160149054906101000a900460ff16905083565b6000815111610f8d576040517f08c379a0000000000000000000000000000000000000000000000000000000008152600401610f8490612dc2565b60405180910390fd5b60046000815480929190610fa090612b22565b91905055506040518060a001604052808281526020013373ffffffffffffffffffffffffffffffffffffffff16815260200160001515815260200160001515815260200160001515815250600260006004548152602001908152602001600020600082015181600001908051906020019061101c929190611ef8565b5060208201518160010160006101000a81548173ffffffffffffffffffffffffffffffffffffffff021916908373ffffffffffffffffffffffffffffffffffffffff16021790555060408201518160010160146101000a81548160ff02191690831515021790555060608201518160010160156101000a81548160ff02191690831515021790555060808201518160010160166101000a81548160ff0219169083151502179055509050507f5108aab9cb8ccaa5825606ac7491a0d7f06c1854b7c8110b0ffb012d407f8c6460045482336040516110fc93929190612de2565b60405180910390a150565b60008054906101000a900473ffffffffffffffffffffffffffffffffffffffff1681565b816001600082815260200190815260200160002060010160009054906101000a900473ffffffffffffffffffffffffffffffffffffffff1673ffffffffffffffffffffffffffffffffffffffff163373ffffffffffffffffffffffffffffffffffffffff16146111d0576040517f08c379a00000000000000000000000000000000000000000000000000000000081526004016111c790612e92565b60405180910390fd5b6001600084815260200190815260200160002060010160149054906101000a900460ff16611233576040517f08c379a000000000000000000000000000000000000000000000000000000000815260040161122a90612efe565b60405180910390fd5b600073ffffffffffffffffffffffffffffffffffffffff168273ffffffffffffffffffffffffffffffffffffffff1614156112a3576040517f08c379a000000000000000000000000000000000000000000000000000000000815260040161129a90612f6a565b60405180910390fd5b6001600084815260200190815260200160002060030160008373ffffffffffffffffffffffffffffffffffffffff1673ffffffffffffffffffffffffffffffffffffffff16815260200190815260200160002060009054906101000a900460ff1615611344576040517f08c379a000000000000000000000000000000000000000000000000000000000815260040161133b90612fd6565b60405180910390fd5b600180600085815260200190815260200160002060030160008473ffffffffffffffffffffffffffffffffffffffff1673ffffffffffffffffffffffffffffffffffffffff16815260200190815260200160002060006101000a81548160ff02191690831515021790555060016000848152602001908152602001600020600201829080600181540180825580915050600190039060005260206000200160009091909190916101000a81548173ffffffffffffffffffffffffffffffffffffffff021916908373ffffffffffffffffffffffffffffffffffffffff1602179055507fe1cacc7bf04bbbc4acbefdd919648dda3da5378dfdd304a8bf8479ac92cb77e08383604051611457929190612ff6565b60405180910390a1505050565b60035481565b60008054906101000a900473ffffffffffffffffffffffffffffffffffffffff1673ffffffffffffffffffffffffffffffffffffffff163373ffffffffffffffffffffffffffffffffffffffff16146114f8576040517f08c379a00000000000000000000000000000000000000000000000000000000081526004016114ef90612c7e565b60405180910390fd5b600073ffffffffffffffffffffffffffffffffffffffff166002600083815260200190815260200160002060010160009054906101000a900473ffffffffffffffffffffffffffffffffffffffff1673ffffffffffffffffffffffffffffffffffffffff16141561159e576040517f08c379a00000000000000000000000000000000000000000000000000000000081526004016115959061306b565b60405180910390fd5b6002600082815260200190815260200160002060010160159054906101000a900460ff1615611602576040517f08c379a00000000000000000000000000000000000000000000000000000000081526004016115f990612d56565b60405180910390fd5b6003600081548092919061161590612b22565b91905055506002600082815260200190815260200160002060000160016000600354815260200190815260200160002060000190805461165490612c00565b61165f929190611f7e565b506002600082815260200190815260200160002060010160009054906101000a900473ffffffffffffffffffffffffffffffffffffffff1660016000600354815260200190815260200160002060010160006101000a81548173ffffffffffffffffffffffffffffffffffffffff021916908373ffffffffffffffffffffffffffffffffffffffff1602179055506001806000600354815260200190815260200160002060010160146101000a81548160ff02191690831515021790555060016002600083815260200190815260200160002060010160156101000a81548160ff0219169083151502179055507ff9575409b8626d9eb3844de52489c10f2599a2410a2b3a9be514755c60c8e4ad60035460405161177d919061230c565b60405180910390a150565b60026020528060005260406000206000915090508060000180546117ab90612c00565b80601f01602080910402602001604051908101604052809291908181526020018280546117d790612c00565b80156118245780601f106117f957610100808354040283529160200191611824565b820191906000526020600020905b81548152906001019060200180831161180757829003601f168201915b5050505050908060010160009054906101000a900473ffffffffffffffffffffffffffffffffffffffff16908060010160149054906101000a900460ff16908060010160159054906101000a900460ff16908060010160169054906101000a900460ff16905085565b6060806060600080600190505b60035481116118ee576001600082815260200190815260200160002060010160149054906101000a900460ff16156118db5781806118d790612b22565b9250505b80806118e690612b22565b91505061189a565b5060008167ffffffffffffffff81111561190b5761190a6120c5565b5b6040519080825280602002602001820160405280156119395781602001602082028036833780820191505090505b50905060008267ffffffffffffffff811115611958576119576120c5565b5b60405190808252806020026020018201604052801561198b57816020015b60608152602001906001900390816119765790505b50905060008367ffffffffffffffff8111156119aa576119a96120c5565b5b6040519080825280602002602001820160405280156119d85781602001602082028036833780820191505090505b509050600080600190505b6003548111611b98576001600082815260200190815260200160002060010160149054906101000a900460ff1615611b855780858381518110611a2957611a28612ba2565b5b602002602001018181525050600160008281526020019081526020016000206000018054611a5690612c00565b80601f0160208091040260200160405190810160405280929190818152602001828054611a8290612c00565b8015611acf5780601f10611aa457610100808354040283529160200191611acf565b820191906000526020600020905b815481529060010190602001808311611ab257829003601f168201915b5050505050848381518110611ae757611ae6612ba2565b5b60200260200101819052506001600082815260200190815260200160002060010160009054906101000a900473ffffffffffffffffffffffffffffffffffffffff16838381518110611b3c57611b3b612ba2565b5b602002602001019073ffffffffffffffffffffffffffffffffffffffff16908173ffffffffffffffffffffffffffffffffffffffff16815250508180611b8190612b22565b9250505b8080611b9090612b22565b9150506119e3565b508383839750975097505050505050909192565b6000806001600086815260200190815260200160002060050160008573ffffffffffffffffffffffffffffffffffffffff1673ffffffffffffffffffffffffffffffffffffffff168152602001908152602001600020548310611c44576040517f08c379a0000000000000000000000000000000000000000000000000000000008152600401611c3b906130d7565b60405180910390fd5b60006001600087815260200190815260200160002060040160008673ffffffffffffffffffffffffffffffffffffffff1673ffffffffffffffffffffffffffffffffffffffff168152602001908152602001600020600085815260200190815260200160002090508060000160009054906101000a900460ff1681600101549250925050935093915050565b6000600354905090565b60606000821415611d22576040518060400160405280600181526020017f30000000000000000000000000000000000000000000000000000000000000008152509050611e36565b600082905060005b60008214611d54578080611d3d90612b22565b915050600a82611d4d9190613126565b9150611d2a565b60008167ffffffffffffffff811115611d7057611d6f6120c5565b5b6040519080825280601f01601f191660200182016040528015611da25781602001600182028036833780820191505090505b5090505b60008514611e2f57600182611dbb9190613157565b9150600a85611dca919061318b565b6030611dd691906131bc565b60f81b818381518110611dec57611deb612ba2565b5b60200101907effffffffffffffffffffffffffffffffffffffffffffffffffffffffffffff1916908160001a905350600a85611e289190613126565b9450611da6565b8093505050505b919050565b60006041825114611e81576040517f08c379a0000000000000000000000000000000000000000000000000000000008152600401611e789061325e565b60405180910390fd5b60008060006020850151925060408501519150606085015160001a905060018682858560405160008152602001604052604051611ec194939291906132a9565b6020604051602081039080840390855afa158015611ee3573d6000803e3d6000fd5b50505060206040510351935050505092915050565b828054611f0490612c00565b90600052602060002090601f016020900481019282611f265760008555611f6d565b82601f10611f3f57805160ff1916838001178555611f6d565b82800160010185558215611f6d579182015b82811115611f6c578251825591602001919060010190611f51565b5b509050611f7a919061200b565b5090565b828054611f8a90612c00565b90600052602060002090601f016020900481019282611fac5760008555611ffa565b82601f10611fbd5780548555611ffa565b82800160010185558215611ffa57600052602060002091601f016020900482015b82811115611ff9578254825591600101919060010190611fde565b5b509050612007919061200b565b5090565b5b8082111561202457600081600090555060010161200c565b5090565b6000604051905090565b600080fd5b600080fd5b6000819050919050565b61204f8161203c565b811461205a57600080fd5b50565b60008135905061206c81612046565b92915050565b60008115159050919050565b61208781612072565b811461209257600080fd5b50565b6000813590506120a48161207e565b92915050565b600080fd5b600080fd5b6000601f19601f8301169050919050565b7f4e487b7100000000000000000000000000000000000000000000000000000000600052604160045260246000fd5b6120fd826120b4565b810181811067ffffffffffffffff8211171561211c5761211b6120c5565b5b80604052505050565b600061212f612028565b905061213b82826120f4565b919050565b600067ffffffffffffffff82111561215b5761215a6120c5565b5b612164826120b4565b9050602081019050919050565b82818337600083830152505050565b600061219361218e84612140565b612125565b9050828152602081018484840111156121af576121ae6120af565b5b6121ba848285612171565b509392505050565b600082601f8301126121d7576121d66120aa565b5b81356121e7848260208601612180565b91505092915050565b60008060006060848603121561220957612208612032565b5b60006122178682870161205d565b935050602061222886828701612095565b925050604084013567ffffffffffffffff81111561224957612248612037565b5b612255868287016121c2565b9150509250925092565b600073ffffffffffffffffffffffffffffffffffffffff82169050919050565b600061228a8261225f565b9050919050565b61229a8161227f565b81146122a557600080fd5b50565b6000813590506122b781612291565b92915050565b600080604083850312156122d4576122d3612032565b5b60006122e28582860161205d565b92505060206122f3858286016122a8565b9150509250929050565b6123068161203c565b82525050565b600060208201905061232160008301846122fd565b92915050565b600081519050919050565b600082825260208201905092915050565b6000819050602082019050919050565b61235c8161203c565b82525050565b600061236e8383612353565b60208301905092915050565b6000602082019050919050565b600061239282612327565b61239c8185612332565b93506123a783612343565b8060005b838110156123d85781516123bf8882612362565b97506123ca8361237a565b9250506001810190506123ab565b5085935050505092915050565b600081519050919050565b600082825260208201905092915050565b6000819050602082019050919050565b600081519050919050565b600082825260208201905092915050565b60005b8381101561244b578082015181840152602081019050612430565b8381111561245a576000848401525b50505050565b600061246b82612411565b612475818561241c565b935061248581856020860161242d565b61248e816120b4565b840191505092915050565b60006124a58383612460565b905092915050565b6000602082019050919050565b60006124c5826123e5565b6124cf81856123f0565b9350836020820285016124e185612401565b8060005b8581101561251d57848403895281516124fe8582612499565b9450612509836124ad565b925060208a019950506001810190506124e5565b50829750879550505050505092915050565b600081519050919050565b600082825260208201905092915050565b6000819050602082019050919050565b6125648161227f565b82525050565b6000612576838361255b565b60208301905092915050565b6000602082019050919050565b600061259a8261252f565b6125a4818561253a565b93506125af8361254b565b8060005b838110156125e05781516125c7888261256a565b97506125d283612582565b9250506001810190506125b3565b5085935050505092915050565b600060608201905081810360008301526126078186612387565b9050818103602083015261261b81856124ba565b9050818103604083015261262f818461258f565b9050949350505050565b60006020828403121561264f5761264e612032565b5b600061265d8482850161205d565b91505092915050565b61266f8161227f565b82525050565b600060208201905061268a6000830184612666565b92915050565b600060208201905081810360008301526126aa818461258f565b905092915050565b600082825260208201905092915050565b60006126ce82612411565b6126d881856126b2565b93506126e881856020860161242d565b6126f1816120b4565b840191505092915050565b61270581612072565b82525050565b6000606082019050818103600083015261272581866126c3565b90506127346020830185612666565b61274160408301846126fc565b949350505050565b60006020828403121561275f5761275e612032565b5b600082013567ffffffffffffffff81111561277d5761277c612037565b5b612789848285016121c2565b91505092915050565b600060a08201905081810360008301526127ac81886126c3565b90506127bb6020830187612666565b6127c860408301866126fc565b6127d560608301856126fc565b6127e260808301846126fc565b9695505050505050565b60008060006060848603121561280557612804612032565b5b60006128138682870161205d565b9350506020612824868287016122a8565b92505060406128358682870161205d565b9150509250925092565b600060408201905061285460008301856126fc565b61286160208301846122fd565b9392505050565b7f4c6f7020636875612064756f6320647579657400000000000000000000000000600082015250565b600061289e6013836126b2565b91506128a982612868565b602082019050919050565b600060208201905081810360008301526128cd81612891565b9050919050565b7f42616e20636875612064616e67206b69206c6f70206e61790000000000000000600082015250565b600061290a6018836126b2565b9150612915826128d4565b602082019050919050565b60006020820190508181036000830152612939816128fd565b9050919050565b600081905092915050565b7f4469656d2064616e68206c6f7020000000000000000000000000000000000000600082015250565b6000612981600e83612940565b915061298c8261294b565b600e82019050919050565b60006129a282612411565b6129ac8185612940565b93506129bc81856020860161242d565b80840191505092915050565b60006129d382612974565b91506129df8284612997565b915081905092915050565b7f19457468657265756d205369676e6564204d6573736167653a0a333200000000600082015250565b6000612a20601c83612940565b9150612a2b826129ea565b601c82019050919050565b6000819050919050565b6000819050919050565b612a5b612a5682612a36565b612a40565b82525050565b6000612a6c82612a13565b9150612a788284612a4a565b60208201915081905092915050565b7f436875206b79206b686f6e6720686f70206c6521000000000000000000000000600082015250565b6000612abd6014836126b2565b9150612ac882612a87565b602082019050919050565b60006020820190508181036000830152612aec81612ab0565b9050919050565b7f4e487b7100000000000000000000000000000000000000000000000000000000600052601160045260246000fd5b6000612b2d8261203c565b91507fffffffffffffffffffffffffffffffffffffffffffffffffffffffffffffffff821415612b6057612b5f612af3565b5b600182019050919050565b6000606082019050612b8060008301866122fd565b612b8d60208301856126fc565b612b9a60408301846122fd565b949350505050565b7f4e487b7100000000000000000000000000000000000000000000000000000000600052603260045260246000fd5b7f4e487b7100000000000000000000000000000000000000000000000000000000600052602260045260246000fd5b60006002820490506001821680612c1857607f821691505b60208210811415612c2c57612c2b612bd1565b5b50919050565b7f636869206164646d696e206475796574206c6f706c6f70000000000000000000600082015250565b6000612c686017836126b2565b9150612c7382612c32565b602082019050919050565b60006020820190508181036000830152612c9781612c5b565b9050919050565b7f4c6f70206b686f6e6720746f6e20746169000000000000000000000000000000600082015250565b6000612cd46011836126b2565b9150612cdf82612c9e565b602082019050919050565b60006020820190508181036000830152612d0381612cc7565b9050919050565b7f436c61737320616c72656164792070726f636573736564000000000000000000600082015250565b6000612d406017836126b2565b9150612d4b82612d0a565b602082019050919050565b60006020820190508181036000830152612d6f81612d33565b9050919050565b7f436c617373206e616d652063616e6e6f7420626520656d707479000000000000600082015250565b6000612dac601a836126b2565b9150612db782612d76565b602082019050919050565b60006020820190508181036000830152612ddb81612d9f565b9050919050565b6000606082019050612df760008301866122fd565b8181036020830152612e0981856126c3565b9050612e186040830184612666565b949350505050565b7f636869206769616e67207669656e20636f20717579656e206368696e6820737560008201527f61206c6f70206e61796e61790000000000000000000000000000000000000000602082015250565b6000612e7c602c836126b2565b9150612e8782612e20565b604082019050919050565b60006020820190508181036000830152612eab81612e6f565b9050919050565b7f6c6f7020636875612064756f6320706865206475796574647579657400000000600082015250565b6000612ee8601c836126b2565b9150612ef382612eb2565b602082019050919050565b60006020820190508181036000830152612f1781612edb565b9050919050565b7f646961206368692073696e68207669656e206b686f6e6720686f70206c656c65600082015250565b6000612f546020836126b2565b9150612f5f82612f1e565b602082019050919050565b60006020820190508181036000830152612f8381612f47565b9050919050565b7f73696e68207669656e20646120636f2074726f6e67206c6f706c6f7000000000600082015250565b6000612fc0601c836126b2565b9150612fcb82612f8a565b602082019050919050565b60006020820190508181036000830152612fef81612fb3565b9050919050565b600060408201905061300b60008301856122fd565b6130186020830184612666565b9392505050565b7f436c617373206e6f7420666f756e640000000000000000000000000000000000600082015250565b6000613055600f836126b2565b91506130608261301f565b602082019050919050565b6000602082019050818103600083015261308481613048565b9050919050565b7f496e6465782076756f74207175612067696f692068616e000000000000000000600082015250565b60006130c16017836126b2565b91506130cc8261308b565b602082019050919050565b600060208201905081810360008301526130f0816130b4565b9050919050565b7f4e487b7100000000000000000000000000000000000000000000000000000000600052601260045260246000fd5b60006131318261203c565b915061313c8361203c565b92508261314c5761314b6130f7565b5b828204905092915050565b60006131628261203c565b915061316d8361203c565b9250828210156131805761317f612af3565b5b828203905092915050565b60006131968261203c565b91506131a18361203c565b9250826131b1576131b06130f7565b5b828206905092915050565b60006131c78261203c565b91506131d28361203c565b9250827fffffffffffffffffffffffffffffffffffffffffffffffffffffffffffffffff0382111561320757613206612af3565b5b828201905092915050565b7f436875206b79206b686f6e672064756e672064696e682064616e672100000000600082015250565b6000613248601c836126b2565b915061325382613212565b602082019050919050565b600060208201905081810360008301526132778161323b565b9050919050565b61328781612a36565b82525050565b600060ff82169050919050565b6132a38161328d565b82525050565b60006080820190506132be600083018761327e565b6132cb602083018661329a565b6132d8604083018561327e565b6132e5606083018461327e565b9594505050505056fea264697066735822122054ad20fe30403d0d7d57b4609d3a810f218ab252bc5a38756a5a9306bac474d964736f6c63430008080033",
  "immutableReferences": {},
  "source": "// SPDX-License-Identifier: MIT\npragma solidity ^0.8.8;\n\n\ncontract AttendanceSystem {\n    address public owner;\n\n    struct Attendance {\n        bool isPresent;\n        uint256 timestamp;\n    }\n\n    struct Class {\n        string name;\n        address teacher;\n        bool isApproved;\n        address[] studentList;\n        mapping(address => bool) students;\n        mapping(address => mapping(uint256 => Attendance)) attendanceRecords;\n        mapping(address => uint256) attendanceCount;\n    }\n\n    struct PendingClass {\n        string name;\n        address teacher;\n        bool isApproved;\n        bool isProcessed;  // Added field\n        bool isRejected;   // Added field\n    }\n\n    mapping(uint256 => Class) public classes;\n    mapping(uint256 => PendingClass) public pendingClasses;\n\n    uint256 public classCount;\n    uint256 public pendingClassCount;\n\n    event ClassPending(uint256 classId, string name, address teacher);\n    event ClassApproved(uint256 classId);\n    event ClassRejected(uint256 classId);\n    event StudentAdded(uint256 classId, address student);\n    event AttendanceMarked(uint256 classId, address indexed user, bool isPresent, uint256 timestamp);\n\n    constructor() {\n        owner = msg.sender;\n    }\n\n    modifier onlyAdmin() {\n        require(msg.sender == owner, \"chi addmin duyet loplop\");\n        _;\n    }\n\n    modifier onlyTeacher(uint256 classId) {\n        require(msg.sender == classes[classId].teacher, \"chi giang vien co quyen chinh sua lop naynay\");\n        _;\n    }\n\n    function createClass(string memory _name) public {\n        require(bytes(_name).length > 0, \"Class name cannot be empty\");\n\n        pendingClassCount++;\n        pendingClasses[pendingClassCount] = PendingClass({\n            name: _name,\n            teacher: msg.sender,\n            isApproved: false,\n            isProcessed: false,  // Initialize the new field\n            isRejected: false    // Initialize the new field\n        });\n\n        emit ClassPending(pendingClassCount, _name, msg.sender);\n    }\n\n    function getPendingClasses() public view returns (uint256[] memory, string[] memory, address[] memory) {\n        uint256 validCount = 0;\n\n        // m s lp hp l\n        for (uint256 i = 1; i <= pendingClassCount; i++) {\n            if (pendingClasses[i].teacher != address(0) && !pendingClasses[i].isProcessed) {\n                validCount++;\n            }\n        }\n\n        // Khai bo mng trong phm vi function\n        uint256[] memory ids = new uint256[](validCount);\n        string[] memory names = new string[](validCount);\n        address[] memory teachers = new address[](validCount);\n\n        uint256 index = 0;\n        for (uint256 i = 1; i <= pendingClassCount; i++) {\n            if (pendingClasses[i].teacher != address(0) && !pendingClasses[i].isProcessed) {\n                ids[index] = i;\n                names[index] = pendingClasses[i].name;\n                teachers[index] = pendingClasses[i].teacher;\n                index++;\n            }\n        }\n\n        return (ids, names, teachers);\n    }\n\n    function getApprovedClasses() public view returns (uint256[] memory, string[] memory, address[] memory) {\n        uint256 validCount = 0;\n\n        // m s lp hp l\n        for (uint256 i = 1; i <= classCount; i++) {\n            if (classes[i].isApproved) {\n                validCount++;\n            }\n        }\n\n        // Khai bo mng trong phm vi function\n        uint256[] memory ids = new uint256[](validCount);\n        string[] memory names = new string[](validCount);\n        address[] memory teachers = new address[](validCount);\n\n        uint256 index = 0;\n        for (uint256 i = 1; i <= classCount; i++) {\n            if (classes[i].isApproved) {\n                ids[index] = i;\n                names[index] = classes[i].name;\n                teachers[index] = classes[i].teacher;\n                index++;\n            }\n        }\n\n        return (ids, names, teachers);\n    }\n\n    function approveClass(uint256 _pendingClassId) public onlyAdmin {\n        require(pendingClasses[_pendingClassId].teacher != address(0), \"Class not found\");\n        require(!pendingClasses[_pendingClassId].isProcessed, \"Class already processed\");\n        \n        classCount++;\n        classes[classCount].name = pendingClasses[_pendingClassId].name;\n        classes[classCount].teacher = pendingClasses[_pendingClassId].teacher;\n        classes[classCount].isApproved = true;\n        \n        // Mark as processed instead of deleting\n        pendingClasses[_pendingClassId].isProcessed = true;\n        \n        emit ClassApproved(classCount);\n    }\n    \n    function getAdmin() public view returns (address) {\n        return owner;\n    }\n\n    function rejectClass(uint256 _pendingClassId) public onlyAdmin {\n        require(pendingClasses[_pendingClassId].teacher != address(0), \"Lop khong ton tai\");\n        require(!pendingClasses[_pendingClassId].isProcessed, \"Class already processed\");\n        \n        pendingClasses[_pendingClassId].isProcessed = true;\n        pendingClasses[_pendingClassId].isRejected = true;\n        \n        emit ClassRejected(_pendingClassId);\n    }\n\n    function addStudent(uint256 _classId, address _student) public onlyTeacher(_classId) {\n        require(classes[_classId].isApproved, \"lop chua duoc phe duyetduyet\");\n        require(_student != address(0), \"dia chi sinh vien khong hop lele\");\n        require(!classes[_classId].students[_student], \"sinh vien da co trong loplop\");\n\n        classes[_classId].students[_student] = true;\n        classes[_classId].studentList.push(_student);\n\n        emit StudentAdded(_classId, _student);\n    }\n\n\nfunction uintToStr(uint256 _value) internal pure returns (string memory) {\n    if (_value == 0) {\n        return \"0\";\n    }\n    uint256 temp = _value;\n    uint256 digits;\n    while (temp != 0) {\n        digits++;\n        temp /= 10;\n    }\n    bytes memory buffer = new bytes(digits);\n    while (_value != 0) {\n        digits -= 1;\n        buffer[digits] = bytes1(uint8(48 + _value % 10));\n        _value /= 10;\n    }\n    return string(buffer);\n}\n\nfunction markAttendance(uint256 _classId, bool _isPresent, string memory _signature) public {\n    require(classes[_classId].isApproved, \"Lop chua duoc duyet\");\n    require(classes[_classId].students[msg.sender], \"Ban chua dang ki lop nay\");\n\n    // Xc thc ch k s\n    bytes32 messageHash = keccak256(\n        abi.encodePacked(\"\\x19Ethereum Signed Message:\\n32\", keccak256(abi.encodePacked(\"Diem danh lop \", uintToStr(_classId))))\n    );\n\n    // p kiu t `string` sang `bytes`\n    bytes memory signatureBytes = bytes(_signature);\n\n    address signer = recoverSigner(messageHash, signatureBytes);\n    require(signer == msg.sender, \"Chu ky khong hop le!\");\n\n    uint256 count = classes[_classId].attendanceCount[msg.sender];\n    classes[_classId].attendanceRecords[msg.sender][count] = Attendance(_isPresent, block.timestamp);\n    classes[_classId].attendanceCount[msg.sender]++;\n\n    emit AttendanceMarked(_classId, msg.sender, _isPresent, block.timestamp);\n}\n\n\n    function splitSignature(bytes memory sig) internal pure returns (bytes32 r, bytes32 s, uint8 v) {\n        require(sig.length == 65, \"Chu ky khong hop le\");\n        assembly {\n            r := mload(add(sig, 32))\n            s := mload(add(sig, 64))\n            v := byte(0, mload(add(sig, 96)))\n        }\n    }\n\n\n    function recoverSigner(bytes32 hash, bytes memory signature) internal pure returns (address) {\n    require(signature.length == 65, \"Chu ky khong dung dinh dang!\");\n\n    bytes32 r;\n    bytes32 s;\n    uint8 v;\n    \n    assembly {\n        r := mload(add(signature, 32))\n        s := mload(add(signature, 64))\n        v := byte(0, mload(add(signature, 96)))\n    }\n\n    return ecrecover(hash, v, r, s);\n}\n\n\n    function getAttendanceCount(uint256 _classId, address _student) public view returns (uint256) {\n        return classes[_classId].attendanceCount[_student];\n    }\n\n    function getAttendanceRecord(uint256 _classId, address _student, uint256 index) public view returns (bool, uint256) {\n        require(index < classes[_classId].attendanceCount[_student], \"Index vuot qua gioi han\");\n\n        Attendance storage record = classes[_classId].attendanceRecords[_student][index];\n        return (record.isPresent, record.timestamp);\n    }\n\n    function getStudents(uint256 _classId) public view returns (address[] memory) {\n        return classes[_classId].studentList;\n    }\n\n    function getTotalClasses() public view returns (uint256) {\n        return classCount;\n    }\n}",
  "sourcePath": "C:\\Users\\Trang\\Downloads\\attendanceSystem-main\\attendanceSystem-main\\contracts\\AttendanceSystem.sol",
  "compiler": {
    "name": "solc",
    "version": "0.8.8+commit.dddeac2f.Emscripten.clang"
  },
  "schemaVersion": "3.4.16",
  "updatedAt": "2025-03-17T08:14:06.760Z",
  "networkType": "ethereum",
  "devdoc": {
    "kind": "dev",
    "methods": {},
    "version": 1
  },
  "userdoc": {
    "kind": "user",
    "methods": {},
    "version": 1
  }
}