{
  "contractName": "AttendanceSystem",
  "abi": [
    {
      "inputs": [],
      "stateMutability": "nonpayable",
      "type": "constructor"
    },
    {
      "anonymous": false,
      "inputs": [
        {
          "indexed": false,
          "internalType": "uint256",
          "name": "classId",
          "type": "uint256"
        },
        {
          "indexed": true,
          "internalType": "address",
          "name": "user",
          "type": "address"
        },
        {
          "indexed": false,
          "internalType": "bool",
          "name": "isPresent",
          "type": "bool"
        },
        {
          "indexed": false,
          "internalType": "uint256",
          "name": "timestamp",
          "type": "uint256"
        }
      ],
      "name": "AttendanceMarked",
      "type": "event"
    },
    {
      "anonymous": false,
      "inputs": [
        {
          "indexed": false,
          "internalType": "uint256",
          "name": "classId",
          "type": "uint256"
        }
      ],
      "name": "ClassApproved",
      "type": "event"
    },
    {
      "anonymous": false,
      "inputs": [
        {
          "indexed": false,
          "internalType": "uint256",
          "name": "classId",
          "type": "uint256"
        },
        {
          "indexed": false,
          "internalType": "string",
          "name": "name",
          "type": "string"
        },
        {
          "indexed": false,
          "internalType": "address",
          "name": "teacher",
          "type": "address"
        }
      ],
      "name": "ClassPending",
      "type": "event"
    },
    {
      "anonymous": false,
      "inputs": [
        {
          "indexed": false,
          "internalType": "uint256",
          "name": "classId",
          "type": "uint256"
        }
      ],
      "name": "ClassRejected",
      "type": "event"
    },
    {
      "anonymous": false,
      "inputs": [
        {
          "indexed": false,
          "internalType": "uint256",
          "name": "classId",
          "type": "uint256"
        },
        {
          "indexed": false,
          "internalType": "address",
          "name": "student",
          "type": "address"
        }
      ],
      "name": "StudentAdded",
      "type": "event"
    },
    {
      "inputs": [],
      "name": "classCount",
      "outputs": [
        {
          "internalType": "uint256",
          "name": "",
          "type": "uint256"
        }
      ],
      "stateMutability": "view",
      "type": "function",
      "constant": true
    },
    {
      "inputs": [
        {
          "internalType": "uint256",
          "name": "",
          "type": "uint256"
        }
      ],
      "name": "classes",
      "outputs": [
        {
          "internalType": "string",
          "name": "name",
          "type": "string"
        },
        {
          "internalType": "address",
          "name": "teacher",
          "type": "address"
        },
        {
          "internalType": "bool",
          "name": "isApproved",
          "type": "bool"
        }
      ],
      "stateMutability": "view",
      "type": "function",
      "constant": true
    },
    {
      "inputs": [],
      "name": "owner",
      "outputs": [
        {
          "internalType": "address",
          "name": "",
          "type": "address"
        }
      ],
      "stateMutability": "view",
      "type": "function",
      "constant": true
    },
    {
      "inputs": [],
      "name": "pendingClassCount",
      "outputs": [
        {
          "internalType": "uint256",
          "name": "",
          "type": "uint256"
        }
      ],
      "stateMutability": "view",
      "type": "function",
      "constant": true
    },
    {
      "inputs": [
        {
          "internalType": "uint256",
          "name": "",
          "type": "uint256"
        }
      ],
      "name": "pendingClasses",
      "outputs": [
        {
          "internalType": "string",
          "name": "name",
          "type": "string"
        },
        {
          "internalType": "address",
          "name": "teacher",
          "type": "address"
        },
        {
          "internalType": "bool",
          "name": "isApproved",
          "type": "bool"
        },
        {
          "internalType": "bool",
          "name": "isProcessed",
          "type": "bool"
        },
        {
          "internalType": "bool",
          "name": "isRejected",
          "type": "bool"
        }
      ],
      "stateMutability": "view",
      "type": "function",
      "constant": true
    },
    {
      "inputs": [
        {
          "internalType": "string",
          "name": "_name",
          "type": "string"
        }
      ],
      "name": "createClass",
      "outputs": [],
      "stateMutability": "nonpayable",
      "type": "function"
    },
    {
      "inputs": [],
      "name": "getPendingClasses",
      "outputs": [
        {
          "internalType": "uint256[]",
          "name": "",
          "type": "uint256[]"
        },
        {
          "internalType": "string[]",
          "name": "",
          "type": "string[]"
        },
        {
          "internalType": "address[]",
          "name": "",
          "type": "address[]"
        }
      ],
      "stateMutability": "view",
      "type": "function",
      "constant": true
    },
    {
      "inputs": [],
      "name": "getApprovedClasses",
      "outputs": [
        {
          "internalType": "uint256[]",
          "name": "",
          "type": "uint256[]"
        },
        {
          "internalType": "string[]",
          "name": "",
          "type": "string[]"
        },
        {
          "internalType": "address[]",
          "name": "",
          "type": "address[]"
        }
      ],
      "stateMutability": "view",
      "type": "function",
      "constant": true
    },
    {
      "inputs": [
        {
          "internalType": "uint256",
          "name": "_pendingClassId",
          "type": "uint256"
        }
      ],
      "name": "approveClass",
      "outputs": [],
      "stateMutability": "nonpayable",
      "type": "function"
    },
    {
      "inputs": [],
      "name": "getAdmin",
      "outputs": [
        {
          "internalType": "address",
          "name": "",
          "type": "address"
        }
      ],
      "stateMutability": "view",
      "type": "function",
      "constant": true
    },
    {
      "inputs": [
        {
          "internalType": "uint256",
          "name": "_pendingClassId",
          "type": "uint256"
        }
      ],
      "name": "rejectClass",
      "outputs": [],
      "stateMutability": "nonpayable",
      "type": "function"
    },
    {
      "inputs": [
        {
          "internalType": "uint256",
          "name": "_classId",
          "type": "uint256"
        },
        {
          "internalType": "address",
          "name": "_student",
          "type": "address"
        }
      ],
      "name": "addStudent",
      "outputs": [],
      "stateMutability": "nonpayable",
      "type": "function"
    },
    {
      "inputs": [
        {
          "internalType": "uint256",
          "name": "_classId",
          "type": "uint256"
        },
        {
          "internalType": "bool",
          "name": "_isPresent",
          "type": "bool"
        }
      ],
      "name": "markAttendance",
      "outputs": [],
      "stateMutability": "nonpayable",
      "type": "function"
    },
    {
      "inputs": [
        {
          "internalType": "uint256",
          "name": "_classId",
          "type": "uint256"
        },
        {
          "internalType": "address",
          "name": "_student",
          "type": "address"
        }
      ],
      "name": "getAttendanceCount",
      "outputs": [
        {
          "internalType": "uint256",
          "name": "",
          "type": "uint256"
        }
      ],
      "stateMutability": "view",
      "type": "function",
      "constant": true
    },
    {
      "inputs": [
        {
          "internalType": "uint256",
          "name": "_classId",
          "type": "uint256"
        },
        {
          "internalType": "address",
          "name": "_student",
          "type": "address"
        },
        {
          "internalType": "uint256",
          "name": "index",
          "type": "uint256"
        }
      ],
      "name": "getAttendanceRecord",
      "outputs": [
        {
          "internalType": "bool",
          "name": "",
          "type": "bool"
        },
        {
          "internalType": "uint256",
          "name": "",
          "type": "uint256"
        }
      ],
      "stateMutability": "view",
      "type": "function",
      "constant": true
    },
    {
      "inputs": [
        {
          "internalType": "uint256",
          "name": "_classId",
          "type": "uint256"
        }
      ],
      "name": "getStudents",
      "outputs": [
        {
          "internalType": "address[]",
          "name": "",
          "type": "address[]"
        }
      ],
      "stateMutability": "view",
      "type": "function",
      "constant": true
    },
    {
      "inputs": [],
      "name": "getTotalClasses",
      "outputs": [
        {
          "internalType": "uint256",
          "name": "",
          "type": "uint256"
        }
      ],
      "stateMutability": "view",
      "type": "function",
      "constant": true
    }
  ],
  "bytecode": "0x608060405234801561001057600080fd5b50336000806101000a81548173ffffffffffffffffffffffffffffffffffffffff021916908373ffffffffffffffffffffffffffffffffffffffff160217905550612c4f806100606000396000f3fe608060405234801561001057600080fd5b506004361061010b5760003560e01c80638a7dc32b116100a2578063cb5e8acb11610071578063cb5e8acb146102aa578063df01b764146102c6578063f358b393146102fa578063fea43b791461031a578063feed14df1461034b5761010b565b80638a7dc32b146102365780638da5cb5b14610252578063a850c18014610270578063ab9963171461028c5761010b565b80636e9960c3116100de5780636e9960c31461019857806375c2f8f0146101b6578063764c8856146101e6578063817dbe9f146102045761010b565b80630ed099d314610110578063521eb9da14610140578063557e7a861461016057806361fc813e1461017c575b600080fd5b61012a60048036038101906101259190611dd4565b610369565b6040516101379190611e23565b60405180910390f35b6101486103c7565b60405161015793929190612115565b60405180910390f35b61017a60048036038101906101759190612161565b6107c6565b005b610196600480360381019061019191906121c6565b6109f6565b005b6101a0610cb9565b6040516101ad9190612215565b60405180910390f35b6101d060048036038101906101cb9190612161565b610ce2565b6040516101dd9190612230565b60405180910390f35b6101ee610d86565b6040516101fb9190611e23565b60405180910390f35b61021e60048036038101906102199190612161565b610d8c565b60405161022d939291906122ab565b60405180910390f35b610250600480360381019061024b919061241e565b610e6b565b005b61025a611029565b6040516102679190612215565b60405180910390f35b61028a60048036038101906102859190611dd4565b61104d565b005b610294611386565b6040516102a19190611e23565b60405180910390f35b6102c460048036038101906102bf9190612161565b61138c565b005b6102e060048036038101906102db9190612161565b6116aa565b6040516102f1959493929190612467565b60405180910390f35b6103026117af565b60405161031193929190612115565b60405180910390f35b610334600480360381019061032f91906124c1565b611ace565b604051610342929190612514565b60405180910390f35b610353611bf2565b6040516103609190611e23565b60405180910390f35b60006001600084815260200190815260200160002060050160008373ffffffffffffffffffffffffffffffffffffffff1673ffffffffffffffffffffffffffffffffffffffff16815260200190815260200160002054905092915050565b6060806060600080600190505b600454811161049857600073ffffffffffffffffffffffffffffffffffffffff166002600083815260200190815260200160002060010160009054906101000a900473ffffffffffffffffffffffffffffffffffffffff1673ffffffffffffffffffffffffffffffffffffffff161415801561047157506002600082815260200190815260200160002060010160159054906101000a900460ff16155b156104855781806104819061256c565b9250505b80806104909061256c565b9150506103d4565b5060008167ffffffffffffffff8111156104b5576104b46122f3565b5b6040519080825280602002602001820160405280156104e35781602001602082028036833780820191505090505b50905060008267ffffffffffffffff811115610502576105016122f3565b5b60405190808252806020026020018201604052801561053557816020015b60608152602001906001900390816105205790505b50905060008367ffffffffffffffff811115610554576105536122f3565b5b6040519080825280602002602001820160405280156105825781602001602082028036833780820191505090505b509050600080600190505b60045481116107b257600073ffffffffffffffffffffffffffffffffffffffff166002600083815260200190815260200160002060010160009054906101000a900473ffffffffffffffffffffffffffffffffffffffff1673ffffffffffffffffffffffffffffffffffffffff161415801561062a57506002600082815260200190815260200160002060010160159054906101000a900460ff16155b1561079f5780858381518110610643576106426125b5565b5b60200260200101818152505060026000828152602001908152602001600020600001805461067090612613565b80601f016020809104026020016040519081016040528092919081815260200182805461069c90612613565b80156106e95780601f106106be576101008083540402835291602001916106e9565b820191906000526020600020905b8154815290600101906020018083116106cc57829003601f168201915b5050505050848381518110610701576107006125b5565b5b60200260200101819052506002600082815260200190815260200160002060010160009054906101000a900473ffffffffffffffffffffffffffffffffffffffff16838381518110610756576107556125b5565b5b602002602001019073ffffffffffffffffffffffffffffffffffffffff16908173ffffffffffffffffffffffffffffffffffffffff1681525050818061079b9061256c565b9250505b80806107aa9061256c565b91505061058d565b508383839750975097505050505050909192565b60008054906101000a900473ffffffffffffffffffffffffffffffffffffffff1673ffffffffffffffffffffffffffffffffffffffff163373ffffffffffffffffffffffffffffffffffffffff1614610854576040517f08c379a000000000000000000000000000000000000000000000000000000000815260040161084b90612691565b60405180910390fd5b600073ffffffffffffffffffffffffffffffffffffffff166002600083815260200190815260200160002060010160009054906101000a900473ffffffffffffffffffffffffffffffffffffffff1673ffffffffffffffffffffffffffffffffffffffff1614156108fa576040517f08c379a00000000000000000000000000000000000000000000000000000000081526004016108f1906126fd565b60405180910390fd5b6002600082815260200190815260200160002060010160159054906101000a900460ff161561095e576040517f08c379a000000000000000000000000000000000000000000000000000000000815260040161095590612769565b60405180910390fd5b60016002600083815260200190815260200160002060010160156101000a81548160ff02191690831515021790555060016002600083815260200190815260200160002060010160166101000a81548160ff0219169083151502179055507f69cb719a6efd90bc1ef83ee1115b795dc40e0f5d7320a3aa1dfbdd82a770671d816040516109eb9190611e23565b60405180910390a150565b6001600083815260200190815260200160002060010160149054906101000a900460ff16610a59576040517f08c379a0000000000000000000000000000000000000000000000000000000008152600401610a50906127d5565b60405180910390fd5b6001600083815260200190815260200160002060030160003373ffffffffffffffffffffffffffffffffffffffff1673ffffffffffffffffffffffffffffffffffffffff16815260200190815260200160002060009054906101000a900460ff16610af9576040517f08c379a0000000000000000000000000000000000000000000000000000000008152600401610af090612841565b60405180910390fd5b60006001600084815260200190815260200160002060050160003373ffffffffffffffffffffffffffffffffffffffff1673ffffffffffffffffffffffffffffffffffffffff16815260200190815260200160002054905060405180604001604052808315158152602001428152506001600085815260200190815260200160002060040160003373ffffffffffffffffffffffffffffffffffffffff1673ffffffffffffffffffffffffffffffffffffffff168152602001908152602001600020600083815260200190815260200160002060008201518160000160006101000a81548160ff021916908315150217905550602082015181600101559050506001600084815260200190815260200160002060050160003373ffffffffffffffffffffffffffffffffffffffff1673ffffffffffffffffffffffffffffffffffffffff1681526020019081526020016000206000815480929190610c5d9061256c565b91905055503373ffffffffffffffffffffffffffffffffffffffff167fa35b9f0b85df0ed76d7c5c596c4d723b414714711906f27a7b390e2cfd097ce6848442604051610cac93929190612861565b60405180910390a2505050565b60008060009054906101000a900473ffffffffffffffffffffffffffffffffffffffff16905090565b606060016000838152602001908152602001600020600201805480602002602001604051908101604052809291908181526020018280548015610d7a57602002820191906000526020600020905b8160009054906101000a900473ffffffffffffffffffffffffffffffffffffffff1673ffffffffffffffffffffffffffffffffffffffff1681526020019060010190808311610d30575b50505050509050919050565b60045481565b6001602052806000526040600020600091509050806000018054610daf90612613565b80601f0160208091040260200160405190810160405280929190818152602001828054610ddb90612613565b8015610e285780601f10610dfd57610100808354040283529160200191610e28565b820191906000526020600020905b815481529060010190602001808311610e0b57829003601f168201915b5050505050908060010160009054906101000a900473ffffffffffffffffffffffffffffffffffffffff16908060010160149054906101000a900460ff16905083565b6000815111610eaf576040517f08c379a0000000000000000000000000000000000000000000000000000000008152600401610ea6906128e4565b60405180910390fd5b60046000815480929190610ec29061256c565b91905055506040518060a001604052808281526020013373ffffffffffffffffffffffffffffffffffffffff168152602001600015158152602001600015158152602001600015158152506002600060045481526020019081526020016000206000820151816000019080519060200190610f3e929190611bfc565b5060208201518160010160006101000a81548173ffffffffffffffffffffffffffffffffffffffff021916908373ffffffffffffffffffffffffffffffffffffffff16021790555060408201518160010160146101000a81548160ff02191690831515021790555060608201518160010160156101000a81548160ff02191690831515021790555060808201518160010160166101000a81548160ff0219169083151502179055509050507f5108aab9cb8ccaa5825606ac7491a0d7f06c1854b7c8110b0ffb012d407f8c64600454823360405161101e93929190612904565b60405180910390a150565b60008054906101000a900473ffffffffffffffffffffffffffffffffffffffff1681565b816001600082815260200190815260200160002060010160009054906101000a900473ffffffffffffffffffffffffffffffffffffffff1673ffffffffffffffffffffffffffffffffffffffff163373ffffffffffffffffffffffffffffffffffffffff16146110f2576040517f08c379a00000000000000000000000000000000000000000000000000000000081526004016110e9906129b4565b60405180910390fd5b6001600084815260200190815260200160002060010160149054906101000a900460ff16611155576040517f08c379a000000000000000000000000000000000000000000000000000000000815260040161114c90612a20565b60405180910390fd5b600073ffffffffffffffffffffffffffffffffffffffff168273ffffffffffffffffffffffffffffffffffffffff1614156111c5576040517f08c379a00000000000000000000000000000000000000000000000000000000081526004016111bc90612a8c565b60405180910390fd5b6001600084815260200190815260200160002060030160008373ffffffffffffffffffffffffffffffffffffffff1673ffffffffffffffffffffffffffffffffffffffff16815260200190815260200160002060009054906101000a900460ff1615611266576040517f08c379a000000000000000000000000000000000000000000000000000000000815260040161125d90612af8565b60405180910390fd5b600180600085815260200190815260200160002060030160008473ffffffffffffffffffffffffffffffffffffffff1673ffffffffffffffffffffffffffffffffffffffff16815260200190815260200160002060006101000a81548160ff02191690831515021790555060016000848152602001908152602001600020600201829080600181540180825580915050600190039060005260206000200160009091909190916101000a81548173ffffffffffffffffffffffffffffffffffffffff021916908373ffffffffffffffffffffffffffffffffffffffff1602179055507fe1cacc7bf04bbbc4acbefdd919648dda3da5378dfdd304a8bf8479ac92cb77e08383604051611379929190612b18565b60405180910390a1505050565b60035481565b60008054906101000a900473ffffffffffffffffffffffffffffffffffffffff1673ffffffffffffffffffffffffffffffffffffffff163373ffffffffffffffffffffffffffffffffffffffff161461141a576040517f08c379a000000000000000000000000000000000000000000000000000000000815260040161141190612691565b60405180910390fd5b600073ffffffffffffffffffffffffffffffffffffffff166002600083815260200190815260200160002060010160009054906101000a900473ffffffffffffffffffffffffffffffffffffffff1673ffffffffffffffffffffffffffffffffffffffff1614156114c0576040517f08c379a00000000000000000000000000000000000000000000000000000000081526004016114b790612b8d565b60405180910390fd5b6002600082815260200190815260200160002060010160159054906101000a900460ff1615611524576040517f08c379a000000000000000000000000000000000000000000000000000000000815260040161151b90612769565b60405180910390fd5b600360008154809291906115379061256c565b91905055506002600082815260200190815260200160002060000160016000600354815260200190815260200160002060000190805461157690612613565b611581929190611c82565b506002600082815260200190815260200160002060010160009054906101000a900473ffffffffffffffffffffffffffffffffffffffff1660016000600354815260200190815260200160002060010160006101000a81548173ffffffffffffffffffffffffffffffffffffffff021916908373ffffffffffffffffffffffffffffffffffffffff1602179055506001806000600354815260200190815260200160002060010160146101000a81548160ff02191690831515021790555060016002600083815260200190815260200160002060010160156101000a81548160ff0219169083151502179055507ff9575409b8626d9eb3844de52489c10f2599a2410a2b3a9be514755c60c8e4ad60035460405161169f9190611e23565b60405180910390a150565b60026020528060005260406000206000915090508060000180546116cd90612613565b80601f01602080910402602001604051908101604052809291908181526020018280546116f990612613565b80156117465780601f1061171b57610100808354040283529160200191611746565b820191906000526020600020905b81548152906001019060200180831161172957829003601f168201915b5050505050908060010160009054906101000a900473ffffffffffffffffffffffffffffffffffffffff16908060010160149054906101000a900460ff16908060010160159054906101000a900460ff16908060010160169054906101000a900460ff16905085565b6060806060600080600190505b6003548111611810576001600082815260200190815260200160002060010160149054906101000a900460ff16156117fd5781806117f99061256c565b9250505b80806118089061256c565b9150506117bc565b5060008167ffffffffffffffff81111561182d5761182c6122f3565b5b60405190808252806020026020018201604052801561185b5781602001602082028036833780820191505090505b50905060008267ffffffffffffffff81111561187a576118796122f3565b5b6040519080825280602002602001820160405280156118ad57816020015b60608152602001906001900390816118985790505b50905060008367ffffffffffffffff8111156118cc576118cb6122f3565b5b6040519080825280602002602001820160405280156118fa5781602001602082028036833780820191505090505b509050600080600190505b6003548111611aba576001600082815260200190815260200160002060010160149054906101000a900460ff1615611aa7578085838151811061194b5761194a6125b5565b5b60200260200101818152505060016000828152602001908152602001600020600001805461197890612613565b80601f01602080910402602001604051908101604052809291908181526020018280546119a490612613565b80156119f15780601f106119c6576101008083540402835291602001916119f1565b820191906000526020600020905b8154815290600101906020018083116119d457829003601f168201915b5050505050848381518110611a0957611a086125b5565b5b60200260200101819052506001600082815260200190815260200160002060010160009054906101000a900473ffffffffffffffffffffffffffffffffffffffff16838381518110611a5e57611a5d6125b5565b5b602002602001019073ffffffffffffffffffffffffffffffffffffffff16908173ffffffffffffffffffffffffffffffffffffffff16815250508180611aa39061256c565b9250505b8080611ab29061256c565b915050611905565b508383839750975097505050505050909192565b6000806001600086815260200190815260200160002060050160008573ffffffffffffffffffffffffffffffffffffffff1673ffffffffffffffffffffffffffffffffffffffff168152602001908152602001600020548310611b66576040517f08c379a0000000000000000000000000000000000000000000000000000000008152600401611b5d90612bf9565b60405180910390fd5b60006001600087815260200190815260200160002060040160008673ffffffffffffffffffffffffffffffffffffffff1673ffffffffffffffffffffffffffffffffffffffff168152602001908152602001600020600085815260200190815260200160002090508060000160009054906101000a900460ff1681600101549250925050935093915050565b6000600354905090565b828054611c0890612613565b90600052602060002090601f016020900481019282611c2a5760008555611c71565b82601f10611c4357805160ff1916838001178555611c71565b82800160010185558215611c71579182015b82811115611c70578251825591602001919060010190611c55565b5b509050611c7e9190611d0f565b5090565b828054611c8e90612613565b90600052602060002090601f016020900481019282611cb05760008555611cfe565b82601f10611cc15780548555611cfe565b82800160010185558215611cfe57600052602060002091601f016020900482015b82811115611cfd578254825591600101919060010190611ce2565b5b509050611d0b9190611d0f565b5090565b5b80821115611d28576000816000905550600101611d10565b5090565b6000604051905090565b600080fd5b600080fd5b6000819050919050565b611d5381611d40565b8114611d5e57600080fd5b50565b600081359050611d7081611d4a565b92915050565b600073ffffffffffffffffffffffffffffffffffffffff82169050919050565b6000611da182611d76565b9050919050565b611db181611d96565b8114611dbc57600080fd5b50565b600081359050611dce81611da8565b92915050565b60008060408385031215611deb57611dea611d36565b5b6000611df985828601611d61565b9250506020611e0a85828601611dbf565b9150509250929050565b611e1d81611d40565b82525050565b6000602082019050611e386000830184611e14565b92915050565b600081519050919050565b600082825260208201905092915050565b6000819050602082019050919050565b611e7381611d40565b82525050565b6000611e858383611e6a565b60208301905092915050565b6000602082019050919050565b6000611ea982611e3e565b611eb38185611e49565b9350611ebe83611e5a565b8060005b83811015611eef578151611ed68882611e79565b9750611ee183611e91565b925050600181019050611ec2565b5085935050505092915050565b600081519050919050565b600082825260208201905092915050565b6000819050602082019050919050565b600081519050919050565b600082825260208201905092915050565b60005b83811015611f62578082015181840152602081019050611f47565b83811115611f71576000848401525b50505050565b6000601f19601f8301169050919050565b6000611f9382611f28565b611f9d8185611f33565b9350611fad818560208601611f44565b611fb681611f77565b840191505092915050565b6000611fcd8383611f88565b905092915050565b6000602082019050919050565b6000611fed82611efc565b611ff78185611f07565b93508360208202850161200985611f18565b8060005b8581101561204557848403895281516120268582611fc1565b945061203183611fd5565b925060208a0199505060018101905061200d565b50829750879550505050505092915050565b600081519050919050565b600082825260208201905092915050565b6000819050602082019050919050565b61208c81611d96565b82525050565b600061209e8383612083565b60208301905092915050565b6000602082019050919050565b60006120c282612057565b6120cc8185612062565b93506120d783612073565b8060005b838110156121085781516120ef8882612092565b97506120fa836120aa565b9250506001810190506120db565b5085935050505092915050565b6000606082019050818103600083015261212f8186611e9e565b905081810360208301526121438185611fe2565b9050818103604083015261215781846120b7565b9050949350505050565b60006020828403121561217757612176611d36565b5b600061218584828501611d61565b91505092915050565b60008115159050919050565b6121a38161218e565b81146121ae57600080fd5b50565b6000813590506121c08161219a565b92915050565b600080604083850312156121dd576121dc611d36565b5b60006121eb85828601611d61565b92505060206121fc858286016121b1565b9150509250929050565b61220f81611d96565b82525050565b600060208201905061222a6000830184612206565b92915050565b6000602082019050818103600083015261224a81846120b7565b905092915050565b600082825260208201905092915050565b600061226e82611f28565b6122788185612252565b9350612288818560208601611f44565b61229181611f77565b840191505092915050565b6122a58161218e565b82525050565b600060608201905081810360008301526122c58186612263565b90506122d46020830185612206565b6122e1604083018461229c565b949350505050565b600080fd5b600080fd5b7f4e487b7100000000000000000000000000000000000000000000000000000000600052604160045260246000fd5b61232b82611f77565b810181811067ffffffffffffffff8211171561234a576123496122f3565b5b80604052505050565b600061235d611d2c565b90506123698282612322565b919050565b600067ffffffffffffffff821115612389576123886122f3565b5b61239282611f77565b9050602081019050919050565b82818337600083830152505050565b60006123c16123bc8461236e565b612353565b9050828152602081018484840111156123dd576123dc6122ee565b5b6123e884828561239f565b509392505050565b600082601f830112612405576124046122e9565b5b81356124158482602086016123ae565b91505092915050565b60006020828403121561243457612433611d36565b5b600082013567ffffffffffffffff81111561245257612451611d3b565b5b61245e848285016123f0565b91505092915050565b600060a08201905081810360008301526124818188612263565b90506124906020830187612206565b61249d604083018661229c565b6124aa606083018561229c565b6124b7608083018461229c565b9695505050505050565b6000806000606084860312156124da576124d9611d36565b5b60006124e886828701611d61565b93505060206124f986828701611dbf565b925050604061250a86828701611d61565b9150509250925092565b6000604082019050612529600083018561229c565b6125366020830184611e14565b9392505050565b7f4e487b7100000000000000000000000000000000000000000000000000000000600052601160045260246000fd5b600061257782611d40565b91507fffffffffffffffffffffffffffffffffffffffffffffffffffffffffffffffff8214156125aa576125a961253d565b5b600182019050919050565b7f4e487b7100000000000000000000000000000000000000000000000000000000600052603260045260246000fd5b7f4e487b7100000000000000000000000000000000000000000000000000000000600052602260045260246000fd5b6000600282049050600182168061262b57607f821691505b6020821081141561263f5761263e6125e4565b5b50919050565b7f636869206164646d696e206475796574206c6f706c6f70000000000000000000600082015250565b600061267b601783612252565b915061268682612645565b602082019050919050565b600060208201905081810360008301526126aa8161266e565b9050919050565b7f4c6f70206b686f6e6720746f6e20746169000000000000000000000000000000600082015250565b60006126e7601183612252565b91506126f2826126b1565b602082019050919050565b60006020820190508181036000830152612716816126da565b9050919050565b7f436c61737320616c72656164792070726f636573736564000000000000000000600082015250565b6000612753601783612252565b915061275e8261271d565b602082019050919050565b6000602082019050818103600083015261278281612746565b9050919050565b7f6c6f7020636875612064756f6320647579657464757965740000000000000000600082015250565b60006127bf601883612252565b91506127ca82612789565b602082019050919050565b600060208201905081810360008301526127ee816127b2565b9050919050565b7f62616e20636875612064616e67206b69206c6f70206e616e6179000000000000600082015250565b600061282b601a83612252565b9150612836826127f5565b602082019050919050565b6000602082019050818103600083015261285a8161281e565b9050919050565b60006060820190506128766000830186611e14565b612883602083018561229c565b6128906040830184611e14565b949350505050565b7f436c617373206e616d652063616e6e6f7420626520656d707479000000000000600082015250565b60006128ce601a83612252565b91506128d982612898565b602082019050919050565b600060208201905081810360008301526128fd816128c1565b9050919050565b60006060820190506129196000830186611e14565b818103602083015261292b8185612263565b905061293a6040830184612206565b949350505050565b7f636869206769616e67207669656e20636f20717579656e206368696e6820737560008201527f61206c6f70206e61796e61790000000000000000000000000000000000000000602082015250565b600061299e602c83612252565b91506129a982612942565b604082019050919050565b600060208201905081810360008301526129cd81612991565b9050919050565b7f6c6f7020636875612064756f6320706865206475796574647579657400000000600082015250565b6000612a0a601c83612252565b9150612a15826129d4565b602082019050919050565b60006020820190508181036000830152612a39816129fd565b9050919050565b7f646961206368692073696e68207669656e206b686f6e6720686f70206c656c65600082015250565b6000612a76602083612252565b9150612a8182612a40565b602082019050919050565b60006020820190508181036000830152612aa581612a69565b9050919050565b7f73696e68207669656e20646120636f2074726f6e67206c6f706c6f7000000000600082015250565b6000612ae2601c83612252565b9150612aed82612aac565b602082019050919050565b60006020820190508181036000830152612b1181612ad5565b9050919050565b6000604082019050612b2d6000830185611e14565b612b3a6020830184612206565b9392505050565b7f436c617373206e6f7420666f756e640000000000000000000000000000000000600082015250565b6000612b77600f83612252565b9150612b8282612b41565b602082019050919050565b60006020820190508181036000830152612ba681612b6a565b9050919050565b7f496e6465782076756f74207175612067696f692068616e000000000000000000600082015250565b6000612be3601783612252565b9150612bee82612bad565b602082019050919050565b60006020820190508181036000830152612c1281612bd6565b905091905056fea2646970667358221220e00bf7a6a927cbb95d525137c0d1ce95327c2f6c7e95f6d448c6c211b01b778b64736f6c63430008080033",
  "immutableReferences": {},
  "source": "// SPDX-License-Identifier: MIT\r\npragma solidity ^0.8.8;\r\n\r\ncontract AttendanceSystem {\r\n    address public owner;\r\n\r\n    struct Attendance {\r\n        bool isPresent;\r\n        uint256 timestamp;\r\n    }\r\n\r\n    struct Class {\r\n        string name;\r\n        address teacher;\r\n        bool isApproved;\r\n        address[] studentList;\r\n        mapping(address => bool) students;\r\n        mapping(address => mapping(uint256 => Attendance)) attendanceRecords;\r\n        mapping(address => uint256) attendanceCount;\r\n    }\r\n\r\n    struct PendingClass {\r\n        string name;\r\n        address teacher;\r\n        bool isApproved;\r\n        bool isProcessed;  // Added field\r\n        bool isRejected;   // Added field\r\n    }\r\n\r\n    mapping(uint256 => Class) public classes;\r\n    mapping(uint256 => PendingClass) public pendingClasses;\r\n\r\n    uint256 public classCount;\r\n    uint256 public pendingClassCount;\r\n\r\n    event ClassPending(uint256 classId, string name, address teacher);\r\n    event ClassApproved(uint256 classId);\r\n    event ClassRejected(uint256 classId);\r\n    event StudentAdded(uint256 classId, address student);\r\n    event AttendanceMarked(uint256 classId, address indexed user, bool isPresent, uint256 timestamp);\r\n\r\n    constructor() {\r\n        owner = msg.sender;\r\n    }\r\n\r\n    modifier onlyAdmin() {\r\n        require(msg.sender == owner, \"chi addmin duyet loplop\");\r\n        _;\r\n    }\r\n\r\n    modifier onlyTeacher(uint256 classId) {\r\n        require(msg.sender == classes[classId].teacher, \"chi giang vien co quyen chinh sua lop naynay\");\r\n        _;\r\n    }\r\n\r\n    function createClass(string memory _name) public {\r\n        require(bytes(_name).length > 0, \"Class name cannot be empty\");\r\n\r\n        pendingClassCount++;\r\n        pendingClasses[pendingClassCount] = PendingClass({\r\n            name: _name,\r\n            teacher: msg.sender,\r\n            isApproved: false,\r\n            isProcessed: false,  // Initialize the new field\r\n            isRejected: false    // Initialize the new field\r\n        });\r\n\r\n        emit ClassPending(pendingClassCount, _name, msg.sender);\r\n    }\r\n\r\n    function getPendingClasses() public view returns (uint256[] memory, string[] memory, address[] memory) {\r\n        uint256 validCount = 0;\r\n\r\n        // m s lp hp l\r\n        for (uint256 i = 1; i <= pendingClassCount; i++) {\r\n            if (pendingClasses[i].teacher != address(0) && !pendingClasses[i].isProcessed) {\r\n                validCount++;\r\n            }\r\n        }\r\n\r\n        // Khai bo mng trong phm vi function\r\n        uint256[] memory ids = new uint256[](validCount);\r\n        string[] memory names = new string[](validCount);\r\n        address[] memory teachers = new address[](validCount);\r\n\r\n        uint256 index = 0;\r\n        for (uint256 i = 1; i <= pendingClassCount; i++) {\r\n            if (pendingClasses[i].teacher != address(0) && !pendingClasses[i].isProcessed) {\r\n                ids[index] = i;\r\n                names[index] = pendingClasses[i].name;\r\n                teachers[index] = pendingClasses[i].teacher;\r\n                index++;\r\n            }\r\n        }\r\n\r\n        return (ids, names, teachers);\r\n    }\r\n\r\n    function getApprovedClasses() public view returns (uint256[] memory, string[] memory, address[] memory) {\r\n        uint256 validCount = 0;\r\n\r\n        // m s lp hp l\r\n        for (uint256 i = 1; i <= classCount; i++) {\r\n            if (classes[i].isApproved) {\r\n                validCount++;\r\n            }\r\n        }\r\n\r\n        // Khai bo mng trong phm vi function\r\n        uint256[] memory ids = new uint256[](validCount);\r\n        string[] memory names = new string[](validCount);\r\n        address[] memory teachers = new address[](validCount);\r\n\r\n        uint256 index = 0;\r\n        for (uint256 i = 1; i <= classCount; i++) {\r\n            if (classes[i].isApproved) {\r\n                ids[index] = i;\r\n                names[index] = classes[i].name;\r\n                teachers[index] = classes[i].teacher;\r\n                index++;\r\n            }\r\n        }\r\n\r\n        return (ids, names, teachers);\r\n    }\r\n\r\n    function approveClass(uint256 _pendingClassId) public onlyAdmin {\r\n        require(pendingClasses[_pendingClassId].teacher != address(0), \"Class not found\");\r\n        require(!pendingClasses[_pendingClassId].isProcessed, \"Class already processed\");\r\n        \r\n        classCount++;\r\n        classes[classCount].name = pendingClasses[_pendingClassId].name;\r\n        classes[classCount].teacher = pendingClasses[_pendingClassId].teacher;\r\n        classes[classCount].isApproved = true;\r\n        \r\n        // Mark as processed instead of deleting\r\n        pendingClasses[_pendingClassId].isProcessed = true;\r\n        \r\n        emit ClassApproved(classCount);\r\n    }\r\n    \r\n    function getAdmin() public view returns (address) {\r\n        return owner;\r\n    }\r\n\r\n    function rejectClass(uint256 _pendingClassId) public onlyAdmin {\r\n        require(pendingClasses[_pendingClassId].teacher != address(0), \"Lop khong ton tai\");\r\n        require(!pendingClasses[_pendingClassId].isProcessed, \"Class already processed\");\r\n        \r\n        pendingClasses[_pendingClassId].isProcessed = true;\r\n        pendingClasses[_pendingClassId].isRejected = true;\r\n        \r\n        emit ClassRejected(_pendingClassId);\r\n    }\r\n\r\n    function addStudent(uint256 _classId, address _student) public onlyTeacher(_classId) {\r\n        require(classes[_classId].isApproved, \"lop chua duoc phe duyetduyet\");\r\n        require(_student != address(0), \"dia chi sinh vien khong hop lele\");\r\n        require(!classes[_classId].students[_student], \"sinh vien da co trong loplop\");\r\n\r\n        classes[_classId].students[_student] = true;\r\n        classes[_classId].studentList.push(_student);\r\n\r\n        emit StudentAdded(_classId, _student);\r\n    }\r\n\r\n    function markAttendance(uint256 _classId, bool _isPresent) public {\r\n        require(classes[_classId].isApproved, \"lop chua duoc duyetduyet\");\r\n        require(classes[_classId].students[msg.sender], \"ban chua dang ki lop nanay\");\r\n\r\n        uint256 count = classes[_classId].attendanceCount[msg.sender];\r\n        classes[_classId].attendanceRecords[msg.sender][count] = Attendance(_isPresent, block.timestamp);\r\n        classes[_classId].attendanceCount[msg.sender]++;\r\n\r\n        emit AttendanceMarked(_classId, msg.sender, _isPresent, block.timestamp);\r\n    }\r\n\r\n    function getAttendanceCount(uint256 _classId, address _student) public view returns (uint256) {\r\n        return classes[_classId].attendanceCount[_student];\r\n    }\r\n\r\n    function getAttendanceRecord(uint256 _classId, address _student, uint256 index) public view returns (bool, uint256) {\r\n        require(index < classes[_classId].attendanceCount[_student], \"Index vuot qua gioi han\");\r\n\r\n        Attendance storage record = classes[_classId].attendanceRecords[_student][index];\r\n        return (record.isPresent, record.timestamp);\r\n    }\r\n\r\n    function getStudents(uint256 _classId) public view returns (address[] memory) {\r\n        return classes[_classId].studentList;\r\n    }\r\n\r\n    function getTotalClasses() public view returns (uint256) {\r\n        return classCount;\r\n    }\r\n}",
  "sourcePath": "D:\\HCMUS\\New folder\\attendanceSystem\\contracts\\AttendanceSystem.sol",
  "compiler": {
    "name": "solc",
    "version": "0.8.8+commit.dddeac2f.Emscripten.clang"
  },
  "schemaVersion": "3.4.16",
  "updatedAt": "2025-03-15T16:05:36.361Z",
  "networkType": "ethereum",
  "devdoc": {
    "kind": "dev",
    "methods": {},
    "version": 1
  },
  "userdoc": {
    "kind": "user",
    "methods": {},
    "version": 1
  }
}