{
  "contractName": "AttendanceSystem",
  "abi": [
    {
      "inputs": [],
      "stateMutability": "nonpayable",
      "type": "constructor"
    },
    {
      "anonymous": false,
      "inputs": [
        {
          "indexed": false,
          "internalType": "uint256",
          "name": "classId",
          "type": "uint256"
        },
        {
          "indexed": true,
          "internalType": "address",
          "name": "user",
          "type": "address"
        },
        {
          "indexed": false,
          "internalType": "bool",
          "name": "isPresent",
          "type": "bool"
        },
        {
          "indexed": false,
          "internalType": "uint256",
          "name": "timestamp",
          "type": "uint256"
        }
      ],
      "name": "AttendanceMarked",
      "type": "event"
    },
    {
      "anonymous": false,
      "inputs": [
        {
          "indexed": false,
          "internalType": "uint256",
          "name": "classId",
          "type": "uint256"
        }
      ],
      "name": "ClassApproved",
      "type": "event"
    },
    {
      "anonymous": false,
      "inputs": [
        {
          "indexed": false,
          "internalType": "uint256",
          "name": "classId",
          "type": "uint256"
        },
        {
          "indexed": false,
          "internalType": "string",
          "name": "name",
          "type": "string"
        },
        {
          "indexed": false,
          "internalType": "address",
          "name": "teacher",
          "type": "address"
        }
      ],
      "name": "ClassPending",
      "type": "event"
    },
    {
      "anonymous": false,
      "inputs": [
        {
          "indexed": false,
          "internalType": "uint256",
          "name": "classId",
          "type": "uint256"
        }
      ],
      "name": "ClassRejected",
      "type": "event"
    },
    {
      "anonymous": false,
      "inputs": [
        {
          "indexed": false,
          "internalType": "uint256",
          "name": "classId",
          "type": "uint256"
        },
        {
          "indexed": false,
          "internalType": "address",
          "name": "student",
          "type": "address"
        }
      ],
      "name": "StudentAdded",
      "type": "event"
    },
    {
      "inputs": [],
      "name": "classCount",
      "outputs": [
        {
          "internalType": "uint256",
          "name": "",
          "type": "uint256"
        }
      ],
      "stateMutability": "view",
      "type": "function",
      "constant": true
    },
    {
      "inputs": [
        {
          "internalType": "uint256",
          "name": "",
          "type": "uint256"
        }
      ],
      "name": "classes",
      "outputs": [
        {
          "internalType": "string",
          "name": "name",
          "type": "string"
        },
        {
          "internalType": "address",
          "name": "teacher",
          "type": "address"
        },
        {
          "internalType": "bool",
          "name": "isApproved",
          "type": "bool"
        }
      ],
      "stateMutability": "view",
      "type": "function",
      "constant": true
    },
    {
      "inputs": [],
      "name": "owner",
      "outputs": [
        {
          "internalType": "address",
          "name": "",
          "type": "address"
        }
      ],
      "stateMutability": "view",
      "type": "function",
      "constant": true
    },
    {
      "inputs": [],
      "name": "pendingClassCount",
      "outputs": [
        {
          "internalType": "uint256",
          "name": "",
          "type": "uint256"
        }
      ],
      "stateMutability": "view",
      "type": "function",
      "constant": true
    },
    {
      "inputs": [
        {
          "internalType": "uint256",
          "name": "",
          "type": "uint256"
        }
      ],
      "name": "pendingClasses",
      "outputs": [
        {
          "internalType": "string",
          "name": "name",
          "type": "string"
        },
        {
          "internalType": "address",
          "name": "teacher",
          "type": "address"
        },
        {
          "internalType": "bool",
          "name": "isApproved",
          "type": "bool"
        }
      ],
      "stateMutability": "view",
      "type": "function",
      "constant": true
    },
    {
      "inputs": [
        {
          "internalType": "string",
          "name": "_name",
          "type": "string"
        }
      ],
      "name": "createClass",
      "outputs": [],
      "stateMutability": "nonpayable",
      "type": "function"
    },
    {
      "inputs": [],
      "name": "getPendingClasses",
      "outputs": [
        {
          "internalType": "uint256[]",
          "name": "",
          "type": "uint256[]"
        },
        {
          "internalType": "string[]",
          "name": "",
          "type": "string[]"
        },
        {
          "internalType": "address[]",
          "name": "",
          "type": "address[]"
        }
      ],
      "stateMutability": "view",
      "type": "function",
      "constant": true
    },
    {
      "inputs": [
        {
          "internalType": "uint256",
          "name": "_pendingClassId",
          "type": "uint256"
        }
      ],
      "name": "approveClass",
      "outputs": [],
      "stateMutability": "nonpayable",
      "type": "function"
    },
    {
      "inputs": [],
      "name": "getAdmin",
      "outputs": [
        {
          "internalType": "address",
          "name": "",
          "type": "address"
        }
      ],
      "stateMutability": "view",
      "type": "function",
      "constant": true
    },
    {
      "inputs": [
        {
          "internalType": "uint256",
          "name": "_pendingClassId",
          "type": "uint256"
        }
      ],
      "name": "rejectClass",
      "outputs": [],
      "stateMutability": "nonpayable",
      "type": "function"
    },
    {
      "inputs": [
        {
          "internalType": "uint256",
          "name": "_classId",
          "type": "uint256"
        },
        {
          "internalType": "address",
          "name": "_student",
          "type": "address"
        }
      ],
      "name": "addStudent",
      "outputs": [],
      "stateMutability": "nonpayable",
      "type": "function"
    },
    {
      "inputs": [
        {
          "internalType": "uint256",
          "name": "_classId",
          "type": "uint256"
        },
        {
          "internalType": "bool",
          "name": "_isPresent",
          "type": "bool"
        }
      ],
      "name": "markAttendance",
      "outputs": [],
      "stateMutability": "nonpayable",
      "type": "function"
    },
    {
      "inputs": [
        {
          "internalType": "uint256",
          "name": "_classId",
          "type": "uint256"
        },
        {
          "internalType": "address",
          "name": "_student",
          "type": "address"
        }
      ],
      "name": "getAttendanceCount",
      "outputs": [
        {
          "internalType": "uint256",
          "name": "",
          "type": "uint256"
        }
      ],
      "stateMutability": "view",
      "type": "function",
      "constant": true
    },
    {
      "inputs": [
        {
          "internalType": "uint256",
          "name": "_classId",
          "type": "uint256"
        },
        {
          "internalType": "address",
          "name": "_student",
          "type": "address"
        },
        {
          "internalType": "uint256",
          "name": "index",
          "type": "uint256"
        }
      ],
      "name": "getAttendanceRecord",
      "outputs": [
        {
          "internalType": "bool",
          "name": "",
          "type": "bool"
        },
        {
          "internalType": "uint256",
          "name": "",
          "type": "uint256"
        }
      ],
      "stateMutability": "view",
      "type": "function",
      "constant": true
    },
    {
      "inputs": [
        {
          "internalType": "uint256",
          "name": "_classId",
          "type": "uint256"
        }
      ],
      "name": "getStudents",
      "outputs": [
        {
          "internalType": "address[]",
          "name": "",
          "type": "address[]"
        }
      ],
      "stateMutability": "view",
      "type": "function",
      "constant": true
    },
    {
      "inputs": [],
      "name": "getTotalClasses",
      "outputs": [
        {
          "internalType": "uint256",
          "name": "",
          "type": "uint256"
        }
      ],
      "stateMutability": "view",
      "type": "function",
      "constant": true
    }
  ],
  "bytecode": "0x608060405234801561001057600080fd5b50336000806101000a81548173ffffffffffffffffffffffffffffffffffffffff021916908373ffffffffffffffffffffffffffffffffffffffff160217905550612718806100606000396000f3fe608060405234801561001057600080fd5b50600436106101005760003560e01c80638a7dc32b11610097578063cb5e8acb11610066578063cb5e8acb1461029f578063df01b764146102bb578063fea43b79146102ed578063feed14df1461031e57610100565b80638a7dc32b1461022b5780638da5cb5b14610247578063a850c18014610265578063ab9963171461028157610100565b80636e9960c3116100d35780636e9960c31461018d57806375c2f8f0146101ab578063764c8856146101db578063817dbe9f146101f957610100565b80630ed099d314610105578063521eb9da14610135578063557e7a861461015557806361fc813e14610171575b600080fd5b61011f600480360381019061011a9190611963565b61033c565b60405161012c91906119b2565b60405180910390f35b61013d61039a565b60405161014c93929190611ca4565b60405180910390f35b61016f600480360381019061016a9190611cf0565b61073f565b005b61018b60048036038101906101869190611d55565b61090e565b005b610195610bd1565b6040516101a29190611da4565b60405180910390f35b6101c560048036038101906101c09190611cf0565b610bfa565b6040516101d29190611dbf565b60405180910390f35b6101e3610c9e565b6040516101f091906119b2565b60405180910390f35b610213600480360381019061020e9190611cf0565b610ca4565b60405161022293929190611e3a565b60405180910390f35b61024560048036038101906102409190611fad565b610d83565b005b61024f610eef565b60405161025c9190611da4565b60405180910390f35b61027f600480360381019061027a9190611963565b610f13565b005b61028961124c565b60405161029691906119b2565b60405180910390f35b6102b960048036038101906102b49190611cf0565b611252565b005b6102d560048036038101906102d09190611cf0565b61153e565b6040516102e493929190611e3a565b60405180910390f35b61030760048036038101906103029190611ff6565b61161d565b604051610315929190612049565b60405180910390f35b610326611741565b60405161033391906119b2565b60405180910390f35b60006001600084815260200190815260200160002060050160008373ffffffffffffffffffffffffffffffffffffffff1673ffffffffffffffffffffffffffffffffffffffff16815260200190815260200160002054905092915050565b606080606060006004549050600080600190505b82811161044157600073ffffffffffffffffffffffffffffffffffffffff166002600083815260200190815260200160002060010160009054906101000a900473ffffffffffffffffffffffffffffffffffffffff1673ffffffffffffffffffffffffffffffffffffffff161461042e57818061042a906120a1565b9250505b8080610439906120a1565b9150506103ae565b5060008167ffffffffffffffff81111561045e5761045d611e82565b5b60405190808252806020026020018201604052801561048c5781602001602082028036833780820191505090505b50905060008267ffffffffffffffff8111156104ab576104aa611e82565b5b6040519080825280602002602001820160405280156104de57816020015b60608152602001906001900390816104c95790505b50905060008367ffffffffffffffff8111156104fd576104fc611e82565b5b60405190808252806020026020018201604052801561052b5781602001602082028036833780820191505090505b509050600080600190505b86811161072a57600073ffffffffffffffffffffffffffffffffffffffff166002600083815260200190815260200160002060010160009054906101000a900473ffffffffffffffffffffffffffffffffffffffff1673ffffffffffffffffffffffffffffffffffffffff161461071757808583815181106105bb576105ba6120ea565b5b6020026020010181815250506002600082815260200190815260200160002060000180546105e890612148565b80601f016020809104026020016040519081016040528092919081815260200182805461061490612148565b80156106615780601f1061063657610100808354040283529160200191610661565b820191906000526020600020905b81548152906001019060200180831161064457829003601f168201915b5050505050848381518110610679576106786120ea565b5b60200260200101819052506002600082815260200190815260200160002060010160009054906101000a900473ffffffffffffffffffffffffffffffffffffffff168383815181106106ce576106cd6120ea565b5b602002602001019073ffffffffffffffffffffffffffffffffffffffff16908173ffffffffffffffffffffffffffffffffffffffff16815250508180610713906120a1565b9250505b8080610722906120a1565b915050610536565b50838383985098509850505050505050909192565b60008054906101000a900473ffffffffffffffffffffffffffffffffffffffff1673ffffffffffffffffffffffffffffffffffffffff163373ffffffffffffffffffffffffffffffffffffffff16146107cd576040517f08c379a00000000000000000000000000000000000000000000000000000000081526004016107c4906121c6565b60405180910390fd5b600073ffffffffffffffffffffffffffffffffffffffff166002600083815260200190815260200160002060010160009054906101000a900473ffffffffffffffffffffffffffffffffffffffff1673ffffffffffffffffffffffffffffffffffffffff161415610873576040517f08c379a000000000000000000000000000000000000000000000000000000000815260040161086a90612232565b60405180910390fd5b6002600082815260200190815260200160002060008082016000610897919061174b565b6001820160006101000a81549073ffffffffffffffffffffffffffffffffffffffff02191690556001820160146101000a81549060ff021916905550507f69cb719a6efd90bc1ef83ee1115b795dc40e0f5d7320a3aa1dfbdd82a770671d8160405161090391906119b2565b60405180910390a150565b6001600083815260200190815260200160002060010160149054906101000a900460ff16610971576040517f08c379a00000000000000000000000000000000000000000000000000000000081526004016109689061229e565b60405180910390fd5b6001600083815260200190815260200160002060030160003373ffffffffffffffffffffffffffffffffffffffff1673ffffffffffffffffffffffffffffffffffffffff16815260200190815260200160002060009054906101000a900460ff16610a11576040517f08c379a0000000000000000000000000000000000000000000000000000000008152600401610a089061230a565b60405180910390fd5b60006001600084815260200190815260200160002060050160003373ffffffffffffffffffffffffffffffffffffffff1673ffffffffffffffffffffffffffffffffffffffff16815260200190815260200160002054905060405180604001604052808315158152602001428152506001600085815260200190815260200160002060040160003373ffffffffffffffffffffffffffffffffffffffff1673ffffffffffffffffffffffffffffffffffffffff168152602001908152602001600020600083815260200190815260200160002060008201518160000160006101000a81548160ff021916908315150217905550602082015181600101559050506001600084815260200190815260200160002060050160003373ffffffffffffffffffffffffffffffffffffffff1673ffffffffffffffffffffffffffffffffffffffff1681526020019081526020016000206000815480929190610b75906120a1565b91905055503373ffffffffffffffffffffffffffffffffffffffff167fa35b9f0b85df0ed76d7c5c596c4d723b414714711906f27a7b390e2cfd097ce6848442604051610bc49392919061232a565b60405180910390a2505050565b60008060009054906101000a900473ffffffffffffffffffffffffffffffffffffffff16905090565b606060016000838152602001908152602001600020600201805480602002602001604051908101604052809291908181526020018280548015610c9257602002820191906000526020600020905b8160009054906101000a900473ffffffffffffffffffffffffffffffffffffffff1673ffffffffffffffffffffffffffffffffffffffff1681526020019060010190808311610c48575b50505050509050919050565b60045481565b6001602052806000526040600020600091509050806000018054610cc790612148565b80601f0160208091040260200160405190810160405280929190818152602001828054610cf390612148565b8015610d405780601f10610d1557610100808354040283529160200191610d40565b820191906000526020600020905b815481529060010190602001808311610d2357829003601f168201915b5050505050908060010160009054906101000a900473ffffffffffffffffffffffffffffffffffffffff16908060010160149054906101000a900460ff16905083565b6000815111610dc7576040517f08c379a0000000000000000000000000000000000000000000000000000000008152600401610dbe906123ad565b60405180910390fd5b60046000815480929190610dda906120a1565b919050555060405180606001604052808281526020013373ffffffffffffffffffffffffffffffffffffffff168152602001600015158152506002600060045481526020019081526020016000206000820151816000019080519060200190610e4492919061178b565b5060208201518160010160006101000a81548173ffffffffffffffffffffffffffffffffffffffff021916908373ffffffffffffffffffffffffffffffffffffffff16021790555060408201518160010160146101000a81548160ff0219169083151502179055509050507f5108aab9cb8ccaa5825606ac7491a0d7f06c1854b7c8110b0ffb012d407f8c646004548233604051610ee4939291906123cd565b60405180910390a150565b60008054906101000a900473ffffffffffffffffffffffffffffffffffffffff1681565b816001600082815260200190815260200160002060010160009054906101000a900473ffffffffffffffffffffffffffffffffffffffff1673ffffffffffffffffffffffffffffffffffffffff163373ffffffffffffffffffffffffffffffffffffffff1614610fb8576040517f08c379a0000000000000000000000000000000000000000000000000000000008152600401610faf9061247d565b60405180910390fd5b6001600084815260200190815260200160002060010160149054906101000a900460ff1661101b576040517f08c379a0000000000000000000000000000000000000000000000000000000008152600401611012906124e9565b60405180910390fd5b600073ffffffffffffffffffffffffffffffffffffffff168273ffffffffffffffffffffffffffffffffffffffff16141561108b576040517f08c379a000000000000000000000000000000000000000000000000000000000815260040161108290612555565b60405180910390fd5b6001600084815260200190815260200160002060030160008373ffffffffffffffffffffffffffffffffffffffff1673ffffffffffffffffffffffffffffffffffffffff16815260200190815260200160002060009054906101000a900460ff161561112c576040517f08c379a0000000000000000000000000000000000000000000000000000000008152600401611123906125c1565b60405180910390fd5b600180600085815260200190815260200160002060030160008473ffffffffffffffffffffffffffffffffffffffff1673ffffffffffffffffffffffffffffffffffffffff16815260200190815260200160002060006101000a81548160ff02191690831515021790555060016000848152602001908152602001600020600201829080600181540180825580915050600190039060005260206000200160009091909190916101000a81548173ffffffffffffffffffffffffffffffffffffffff021916908373ffffffffffffffffffffffffffffffffffffffff1602179055507fe1cacc7bf04bbbc4acbefdd919648dda3da5378dfdd304a8bf8479ac92cb77e0838360405161123f9291906125e1565b60405180910390a1505050565b60035481565b60008054906101000a900473ffffffffffffffffffffffffffffffffffffffff1673ffffffffffffffffffffffffffffffffffffffff163373ffffffffffffffffffffffffffffffffffffffff16146112e0576040517f08c379a00000000000000000000000000000000000000000000000000000000081526004016112d7906121c6565b60405180910390fd5b600073ffffffffffffffffffffffffffffffffffffffff166002600083815260200190815260200160002060010160009054906101000a900473ffffffffffffffffffffffffffffffffffffffff1673ffffffffffffffffffffffffffffffffffffffff161415611386576040517f08c379a000000000000000000000000000000000000000000000000000000000815260040161137d90612656565b60405180910390fd5b60036000815480929190611399906120a1565b9190505550600260008281526020019081526020016000206000016001600060035481526020019081526020016000206000019080546113d890612148565b6113e3929190611811565b506002600082815260200190815260200160002060010160009054906101000a900473ffffffffffffffffffffffffffffffffffffffff1660016000600354815260200190815260200160002060010160006101000a81548173ffffffffffffffffffffffffffffffffffffffff021916908373ffffffffffffffffffffffffffffffffffffffff1602179055506001806000600354815260200190815260200160002060010160146101000a81548160ff02191690831515021790555060026000828152602001908152602001600020600080820160006114c5919061174b565b6001820160006101000a81549073ffffffffffffffffffffffffffffffffffffffff02191690556001820160146101000a81549060ff021916905550507ff9575409b8626d9eb3844de52489c10f2599a2410a2b3a9be514755c60c8e4ad60035460405161153391906119b2565b60405180910390a150565b600260205280600052604060002060009150905080600001805461156190612148565b80601f016020809104026020016040519081016040528092919081815260200182805461158d90612148565b80156115da5780601f106115af576101008083540402835291602001916115da565b820191906000526020600020905b8154815290600101906020018083116115bd57829003601f168201915b5050505050908060010160009054906101000a900473ffffffffffffffffffffffffffffffffffffffff16908060010160149054906101000a900460ff16905083565b6000806001600086815260200190815260200160002060050160008573ffffffffffffffffffffffffffffffffffffffff1673ffffffffffffffffffffffffffffffffffffffff1681526020019081526020016000205483106116b5576040517f08c379a00000000000000000000000000000000000000000000000000000000081526004016116ac906126c2565b60405180910390fd5b60006001600087815260200190815260200160002060040160008673ffffffffffffffffffffffffffffffffffffffff1673ffffffffffffffffffffffffffffffffffffffff168152602001908152602001600020600085815260200190815260200160002090508060000160009054906101000a900460ff1681600101549250925050935093915050565b6000600354905090565b50805461175790612148565b6000825580601f106117695750611788565b601f016020900490600052602060002090810190611787919061189e565b5b50565b82805461179790612148565b90600052602060002090601f0160209004810192826117b95760008555611800565b82601f106117d257805160ff1916838001178555611800565b82800160010185558215611800579182015b828111156117ff5782518255916020019190600101906117e4565b5b50905061180d919061189e565b5090565b82805461181d90612148565b90600052602060002090601f01602090048101928261183f576000855561188d565b82601f10611850578054855561188d565b8280016001018555821561188d57600052602060002091601f016020900482015b8281111561188c578254825591600101919060010190611871565b5b50905061189a919061189e565b5090565b5b808211156118b757600081600090555060010161189f565b5090565b6000604051905090565b600080fd5b600080fd5b6000819050919050565b6118e2816118cf565b81146118ed57600080fd5b50565b6000813590506118ff816118d9565b92915050565b600073ffffffffffffffffffffffffffffffffffffffff82169050919050565b600061193082611905565b9050919050565b61194081611925565b811461194b57600080fd5b50565b60008135905061195d81611937565b92915050565b6000806040838503121561197a576119796118c5565b5b6000611988858286016118f0565b92505060206119998582860161194e565b9150509250929050565b6119ac816118cf565b82525050565b60006020820190506119c760008301846119a3565b92915050565b600081519050919050565b600082825260208201905092915050565b6000819050602082019050919050565b611a02816118cf565b82525050565b6000611a1483836119f9565b60208301905092915050565b6000602082019050919050565b6000611a38826119cd565b611a4281856119d8565b9350611a4d836119e9565b8060005b83811015611a7e578151611a658882611a08565b9750611a7083611a20565b925050600181019050611a51565b5085935050505092915050565b600081519050919050565b600082825260208201905092915050565b6000819050602082019050919050565b600081519050919050565b600082825260208201905092915050565b60005b83811015611af1578082015181840152602081019050611ad6565b83811115611b00576000848401525b50505050565b6000601f19601f8301169050919050565b6000611b2282611ab7565b611b2c8185611ac2565b9350611b3c818560208601611ad3565b611b4581611b06565b840191505092915050565b6000611b5c8383611b17565b905092915050565b6000602082019050919050565b6000611b7c82611a8b565b611b868185611a96565b935083602082028501611b9885611aa7565b8060005b85811015611bd45784840389528151611bb58582611b50565b9450611bc083611b64565b925060208a01995050600181019050611b9c565b50829750879550505050505092915050565b600081519050919050565b600082825260208201905092915050565b6000819050602082019050919050565b611c1b81611925565b82525050565b6000611c2d8383611c12565b60208301905092915050565b6000602082019050919050565b6000611c5182611be6565b611c5b8185611bf1565b9350611c6683611c02565b8060005b83811015611c97578151611c7e8882611c21565b9750611c8983611c39565b925050600181019050611c6a565b5085935050505092915050565b60006060820190508181036000830152611cbe8186611a2d565b90508181036020830152611cd28185611b71565b90508181036040830152611ce68184611c46565b9050949350505050565b600060208284031215611d0657611d056118c5565b5b6000611d14848285016118f0565b91505092915050565b60008115159050919050565b611d3281611d1d565b8114611d3d57600080fd5b50565b600081359050611d4f81611d29565b92915050565b60008060408385031215611d6c57611d6b6118c5565b5b6000611d7a858286016118f0565b9250506020611d8b85828601611d40565b9150509250929050565b611d9e81611925565b82525050565b6000602082019050611db96000830184611d95565b92915050565b60006020820190508181036000830152611dd98184611c46565b905092915050565b600082825260208201905092915050565b6000611dfd82611ab7565b611e078185611de1565b9350611e17818560208601611ad3565b611e2081611b06565b840191505092915050565b611e3481611d1d565b82525050565b60006060820190508181036000830152611e548186611df2565b9050611e636020830185611d95565b611e706040830184611e2b565b949350505050565b600080fd5b600080fd5b7f4e487b7100000000000000000000000000000000000000000000000000000000600052604160045260246000fd5b611eba82611b06565b810181811067ffffffffffffffff82111715611ed957611ed8611e82565b5b80604052505050565b6000611eec6118bb565b9050611ef88282611eb1565b919050565b600067ffffffffffffffff821115611f1857611f17611e82565b5b611f2182611b06565b9050602081019050919050565b82818337600083830152505050565b6000611f50611f4b84611efd565b611ee2565b905082815260208101848484011115611f6c57611f6b611e7d565b5b611f77848285611f2e565b509392505050565b600082601f830112611f9457611f93611e78565b5b8135611fa4848260208601611f3d565b91505092915050565b600060208284031215611fc357611fc26118c5565b5b600082013567ffffffffffffffff811115611fe157611fe06118ca565b5b611fed84828501611f7f565b91505092915050565b60008060006060848603121561200f5761200e6118c5565b5b600061201d868287016118f0565b935050602061202e8682870161194e565b925050604061203f868287016118f0565b9150509250925092565b600060408201905061205e6000830185611e2b565b61206b60208301846119a3565b9392505050565b7f4e487b7100000000000000000000000000000000000000000000000000000000600052601160045260246000fd5b60006120ac826118cf565b91507fffffffffffffffffffffffffffffffffffffffffffffffffffffffffffffffff8214156120df576120de612072565b5b600182019050919050565b7f4e487b7100000000000000000000000000000000000000000000000000000000600052603260045260246000fd5b7f4e487b7100000000000000000000000000000000000000000000000000000000600052602260045260246000fd5b6000600282049050600182168061216057607f821691505b6020821081141561217457612173612119565b5b50919050565b7f636869206164646d696e206475796574206c6f706c6f70000000000000000000600082015250565b60006121b0601783611de1565b91506121bb8261217a565b602082019050919050565b600060208201905081810360008301526121df816121a3565b9050919050565b7f6c6f70206b686f6e6720746f6e20746169746169000000000000000000000000600082015250565b600061221c601483611de1565b9150612227826121e6565b602082019050919050565b6000602082019050818103600083015261224b8161220f565b9050919050565b7f6c6f7020636875612064756f6320647579657464757965740000000000000000600082015250565b6000612288601883611de1565b915061229382612252565b602082019050919050565b600060208201905081810360008301526122b78161227b565b9050919050565b7f62616e20636875612064616e67206b69206c6f70206e616e6179000000000000600082015250565b60006122f4601a83611de1565b91506122ff826122be565b602082019050919050565b60006020820190508181036000830152612323816122e7565b9050919050565b600060608201905061233f60008301866119a3565b61234c6020830185611e2b565b61235960408301846119a3565b949350505050565b7f74656e206c6f70206b686f6e672064756f632064652074726f6e6774726f6e67600082015250565b6000612397602083611de1565b91506123a282612361565b602082019050919050565b600060208201905081810360008301526123c68161238a565b9050919050565b60006060820190506123e260008301866119a3565b81810360208301526123f48185611df2565b90506124036040830184611d95565b949350505050565b7f636869206769616e67207669656e20636f20717579656e206368696e6820737560008201527f61206c6f70206e61796e61790000000000000000000000000000000000000000602082015250565b6000612467602c83611de1565b91506124728261240b565b604082019050919050565b600060208201905081810360008301526124968161245a565b9050919050565b7f6c6f7020636875612064756f6320706865206475796574647579657400000000600082015250565b60006124d3601c83611de1565b91506124de8261249d565b602082019050919050565b60006020820190508181036000830152612502816124c6565b9050919050565b7f646961206368692073696e68207669656e206b686f6e6720686f70206c656c65600082015250565b600061253f602083611de1565b915061254a82612509565b602082019050919050565b6000602082019050818103600083015261256e81612532565b9050919050565b7f73696e68207669656e20646120636f2074726f6e67206c6f706c6f7000000000600082015250565b60006125ab601c83611de1565b91506125b682612575565b602082019050919050565b600060208201905081810360008301526125da8161259e565b9050919050565b60006040820190506125f660008301856119a3565b6126036020830184611d95565b9392505050565b7f436c617373206e6f7420666f756e640000000000000000000000000000000000600082015250565b6000612640600f83611de1565b915061264b8261260a565b602082019050919050565b6000602082019050818103600083015261266f81612633565b9050919050565b7f496e6465782076756f74207175612067696f692068616e000000000000000000600082015250565b60006126ac601783611de1565b91506126b782612676565b602082019050919050565b600060208201905081810360008301526126db8161269f565b905091905056fea2646970667358221220d7026d3b6315afdbf35835b6fcf8c708db1325aae142160aac16dd6daed5665a64736f6c63430008080033",
  "immutableReferences": {},
  "source": "// SPDX-License-Identifier: MIT\r\npragma solidity ^0.8.8;\r\n\r\ncontract AttendanceSystem {\r\n    address public owner;\r\n\r\n    struct Attendance {\r\n        bool isPresent;\r\n        uint256 timestamp;\r\n    }\r\n\r\n    struct Class {\r\n        string name;\r\n        address teacher;\r\n        bool isApproved;\r\n        address[] studentList;\r\n        mapping(address => bool) students;\r\n        mapping(address => mapping(uint256 => Attendance)) attendanceRecords;\r\n        mapping(address => uint256) attendanceCount;\r\n    }\r\n\r\n    struct PendingClass {\r\n        string name;\r\n        address teacher;\r\n        bool isApproved; // Trng thi ph duyt\r\n    }\r\n\r\n    mapping(uint256 => Class) public classes;\r\n    mapping(uint256 => PendingClass) public pendingClasses;\r\n\r\n    uint256 public classCount;\r\n    uint256 public pendingClassCount;\r\n\r\n    event ClassPending(uint256 classId, string name, address teacher);\r\n    event ClassApproved(uint256 classId);\r\n    event ClassRejected(uint256 classId);\r\n    event StudentAdded(uint256 classId, address student);\r\n    event AttendanceMarked(uint256 classId, address indexed user, bool isPresent, uint256 timestamp);\r\n\r\n    constructor() {\r\n        owner = msg.sender;\r\n    }\r\n\r\n    modifier onlyAdmin() {\r\n        require(msg.sender == owner, \"chi addmin duyet loplop\");\r\n        _;\r\n    }\r\n\r\n    modifier onlyTeacher(uint256 classId) {\r\n        require(msg.sender == classes[classId].teacher, \"chi giang vien co quyen chinh sua lop naynay\");\r\n        _;\r\n    }\r\n\r\n    function createClass(string memory _name) public {\r\n        require(bytes(_name).length > 0, \"ten lop khong duoc de trongtrong\");\r\n\r\n        pendingClassCount++;\r\n        pendingClasses[pendingClassCount] = PendingClass({\r\n            name: _name,\r\n            teacher: msg.sender,\r\n            isApproved: false\r\n        });\r\n\r\n        emit ClassPending(pendingClassCount, _name, msg.sender);\r\n    }\r\n     function getPendingClasses() public view returns (uint256[] memory, string[] memory, address[] memory) {\r\n    uint256 count = pendingClassCount;\r\n    uint256 validCount = 0;\r\n\r\n    // m s lp hp l\r\n    for (uint256 i = 1; i <= count; i++) {\r\n        if (pendingClasses[i].teacher != address(0)) {\r\n            validCount++;\r\n        }\r\n    }\r\n\r\n    // To mng ng  lu d liu\r\n    uint256[] memory ids = new uint256[](validCount);\r\n    string[] memory names = new string[](validCount);\r\n    address[] memory teachers = new address[](validCount);\r\n\r\n    uint256 index = 0;\r\n    for (uint256 i = 1; i <= count; i++) {\r\n        if (pendingClasses[i].teacher != address(0)) {\r\n            ids[index] = i;\r\n            names[index] = pendingClasses[i].name;\r\n            teachers[index] = pendingClasses[i].teacher;\r\n            index++;\r\n        }\r\n    }\r\n\r\n    return (ids, names, teachers);\r\n}\r\n\r\n\r\nfunction approveClass(uint256 _pendingClassId) public onlyAdmin {\r\n    require(pendingClasses[_pendingClassId].teacher != address(0), \"Class not found\");\r\n\r\n    classCount++;\r\n    classes[classCount].name = pendingClasses[_pendingClassId].name;\r\n    classes[classCount].teacher = pendingClasses[_pendingClassId].teacher;\r\n    classes[classCount].isApproved = true;\r\n\r\n    delete pendingClasses[_pendingClassId];\r\n\r\n    emit ClassApproved(classCount);\r\n}\r\n    \r\n    function getAdmin() public view returns (address) {\r\n    return owner;\r\n}\r\n\r\n\r\n    function rejectClass(uint256 _pendingClassId) public onlyAdmin {\r\n        require(pendingClasses[_pendingClassId].teacher != address(0), \"lop khong ton taitai\");\r\n\r\n        delete pendingClasses[_pendingClassId];\r\n\r\n        emit ClassRejected(_pendingClassId);\r\n    }\r\n\r\n    function addStudent(uint256 _classId, address _student) public onlyTeacher(_classId) {\r\n        require(classes[_classId].isApproved, \"lop chua duoc phe duyetduyet\");\r\n        require(_student != address(0), \"dia chi sinh vien khong hop lele\");\r\n        require(!classes[_classId].students[_student], \"sinh vien da co trong loplop\");\r\n\r\n        classes[_classId].students[_student] = true;\r\n        classes[_classId].studentList.push(_student);\r\n\r\n        emit StudentAdded(_classId, _student);\r\n    }\r\n\r\n    function markAttendance(uint256 _classId, bool _isPresent) public {\r\n        require(classes[_classId].isApproved, \"lop chua duoc duyetduyet\");\r\n        require(classes[_classId].students[msg.sender], \"ban chua dang ki lop nanay\");\r\n\r\n        uint256 count = classes[_classId].attendanceCount[msg.sender];\r\n        classes[_classId].attendanceRecords[msg.sender][count] = Attendance(_isPresent, block.timestamp);\r\n        classes[_classId].attendanceCount[msg.sender]++;\r\n\r\n        emit AttendanceMarked(_classId, msg.sender, _isPresent, block.timestamp);\r\n    }\r\n\r\n    function getAttendanceCount(uint256 _classId, address _student) public view returns (uint256) {\r\n        return classes[_classId].attendanceCount[_student];\r\n    }\r\n\r\n    function getAttendanceRecord(uint256 _classId, address _student, uint256 index) public view returns (bool, uint256) {\r\n        require(index < classes[_classId].attendanceCount[_student], \"Index vuot qua gioi han\");\r\n\r\n        Attendance storage record = classes[_classId].attendanceRecords[_student][index];\r\n        return (record.isPresent, record.timestamp);\r\n    }\r\n\r\n    function getStudents(uint256 _classId) public view returns (address[] memory) {\r\n        return classes[_classId].studentList;\r\n    }\r\n\r\n    function getTotalClasses() public view returns (uint256) {\r\n        return classCount;\r\n    }\r\n}\r\n",
  "sourcePath": "C:\\Users\\Trang\\Downloads\\attendance-system (2)\\contracts\\AttendanceSystem.sol",
  "compiler": {
    "name": "solc",
    "version": "0.8.8+commit.dddeac2f.Emscripten.clang"
  },
  "schemaVersion": "3.4.16",
  "updatedAt": "2025-03-14T13:26:17.663Z",
  "networkType": "ethereum",
  "devdoc": {
    "kind": "dev",
    "methods": {},
    "version": 1
  },
  "userdoc": {
    "kind": "user",
    "methods": {},
    "version": 1
  }
}