{
  "contractName": "AttendanceSystem",
  "abi": [
    {
      "inputs": [],
      "stateMutability": "nonpayable",
      "type": "constructor"
    },
    {
      "anonymous": false,
      "inputs": [
        {
          "indexed": false,
          "internalType": "uint256",
          "name": "classId",
          "type": "uint256"
        },
        {
          "indexed": true,
          "internalType": "address",
          "name": "user",
          "type": "address"
        },
        {
          "indexed": false,
          "internalType": "bool",
          "name": "isPresent",
          "type": "bool"
        },
        {
          "indexed": false,
          "internalType": "uint256",
          "name": "timestamp",
          "type": "uint256"
        }
      ],
      "name": "AttendanceMarked",
      "type": "event"
    },
    {
      "anonymous": false,
      "inputs": [
        {
          "indexed": false,
          "internalType": "uint256",
          "name": "classId",
          "type": "uint256"
        }
      ],
      "name": "ClassApproved",
      "type": "event"
    },
    {
      "anonymous": false,
      "inputs": [
        {
          "indexed": false,
          "internalType": "uint256",
          "name": "classId",
          "type": "uint256"
        },
        {
          "indexed": false,
          "internalType": "string",
          "name": "name",
          "type": "string"
        },
        {
          "indexed": false,
          "internalType": "address",
          "name": "teacher",
          "type": "address"
        }
      ],
      "name": "ClassPending",
      "type": "event"
    },
    {
      "anonymous": false,
      "inputs": [
        {
          "indexed": false,
          "internalType": "uint256",
          "name": "classId",
          "type": "uint256"
        }
      ],
      "name": "ClassRejected",
      "type": "event"
    },
    {
      "anonymous": false,
      "inputs": [
        {
          "indexed": false,
          "internalType": "uint256",
          "name": "classId",
          "type": "uint256"
        },
        {
          "indexed": false,
          "internalType": "address",
          "name": "student",
          "type": "address"
        }
      ],
      "name": "StudentAdded",
      "type": "event"
    },
    {
      "inputs": [],
      "name": "classCount",
      "outputs": [
        {
          "internalType": "uint256",
          "name": "",
          "type": "uint256"
        }
      ],
      "stateMutability": "view",
      "type": "function",
      "constant": true
    },
    {
      "inputs": [
        {
          "internalType": "uint256",
          "name": "",
          "type": "uint256"
        }
      ],
      "name": "classes",
      "outputs": [
        {
          "internalType": "string",
          "name": "name",
          "type": "string"
        },
        {
          "internalType": "address",
          "name": "teacher",
          "type": "address"
        },
        {
          "internalType": "bool",
          "name": "isApproved",
          "type": "bool"
        }
      ],
      "stateMutability": "view",
      "type": "function",
      "constant": true
    },
    {
      "inputs": [],
      "name": "owner",
      "outputs": [
        {
          "internalType": "address",
          "name": "",
          "type": "address"
        }
      ],
      "stateMutability": "view",
      "type": "function",
      "constant": true
    },
    {
      "inputs": [],
      "name": "pendingClassCount",
      "outputs": [
        {
          "internalType": "uint256",
          "name": "",
          "type": "uint256"
        }
      ],
      "stateMutability": "view",
      "type": "function",
      "constant": true
    },
    {
      "inputs": [
        {
          "internalType": "uint256",
          "name": "",
          "type": "uint256"
        }
      ],
      "name": "pendingClasses",
      "outputs": [
        {
          "internalType": "string",
          "name": "name",
          "type": "string"
        },
        {
          "internalType": "address",
          "name": "teacher",
          "type": "address"
        },
        {
          "internalType": "bool",
          "name": "isApproved",
          "type": "bool"
        }
      ],
      "stateMutability": "view",
      "type": "function",
      "constant": true
    },
    {
      "inputs": [
        {
          "internalType": "string",
          "name": "_name",
          "type": "string"
        }
      ],
      "name": "createClass",
      "outputs": [],
      "stateMutability": "nonpayable",
      "type": "function"
    },
    {
      "inputs": [],
      "name": "getPendingClasses",
      "outputs": [
        {
          "internalType": "uint256[]",
          "name": "",
          "type": "uint256[]"
        },
        {
          "internalType": "string[]",
          "name": "",
          "type": "string[]"
        },
        {
          "internalType": "address[]",
          "name": "",
          "type": "address[]"
        }
      ],
      "stateMutability": "view",
      "type": "function",
      "constant": true
    },
    {
      "inputs": [
        {
          "internalType": "uint256",
          "name": "_pendingClassId",
          "type": "uint256"
        }
      ],
      "name": "approveClass",
      "outputs": [],
      "stateMutability": "nonpayable",
      "type": "function"
    },
    {
      "inputs": [],
      "name": "getAdmin",
      "outputs": [
        {
          "internalType": "address",
          "name": "",
          "type": "address"
        }
      ],
      "stateMutability": "view",
      "type": "function",
      "constant": true
    },
    {
      "inputs": [
        {
          "internalType": "uint256",
          "name": "_pendingClassId",
          "type": "uint256"
        }
      ],
      "name": "rejectClass",
      "outputs": [],
      "stateMutability": "nonpayable",
      "type": "function"
    },
    {
      "inputs": [
        {
          "internalType": "uint256",
          "name": "_classId",
          "type": "uint256"
        },
        {
          "internalType": "address",
          "name": "_student",
          "type": "address"
        }
      ],
      "name": "addStudent",
      "outputs": [],
      "stateMutability": "nonpayable",
      "type": "function"
    },
    {
      "inputs": [
        {
          "internalType": "uint256",
          "name": "_classId",
          "type": "uint256"
        },
        {
          "internalType": "bool",
          "name": "_isPresent",
          "type": "bool"
        }
      ],
      "name": "markAttendance",
      "outputs": [],
      "stateMutability": "nonpayable",
      "type": "function"
    },
    {
      "inputs": [
        {
          "internalType": "uint256",
          "name": "_classId",
          "type": "uint256"
        },
        {
          "internalType": "address",
          "name": "_student",
          "type": "address"
        }
      ],
      "name": "getAttendanceCount",
      "outputs": [
        {
          "internalType": "uint256",
          "name": "",
          "type": "uint256"
        }
      ],
      "stateMutability": "view",
      "type": "function",
      "constant": true
    },
    {
      "inputs": [
        {
          "internalType": "uint256",
          "name": "_classId",
          "type": "uint256"
        },
        {
          "internalType": "address",
          "name": "_student",
          "type": "address"
        },
        {
          "internalType": "uint256",
          "name": "index",
          "type": "uint256"
        }
      ],
      "name": "getAttendanceRecord",
      "outputs": [
        {
          "internalType": "bool",
          "name": "",
          "type": "bool"
        },
        {
          "internalType": "uint256",
          "name": "",
          "type": "uint256"
        }
      ],
      "stateMutability": "view",
      "type": "function",
      "constant": true
    },
    {
      "inputs": [
        {
          "internalType": "uint256",
          "name": "_classId",
          "type": "uint256"
        }
      ],
      "name": "getStudents",
      "outputs": [
        {
          "internalType": "address[]",
          "name": "",
          "type": "address[]"
        }
      ],
      "stateMutability": "view",
      "type": "function",
      "constant": true
    },
    {
      "inputs": [],
      "name": "getTotalClasses",
      "outputs": [
        {
          "internalType": "uint256",
          "name": "",
          "type": "uint256"
        }
      ],
      "stateMutability": "view",
      "type": "function",
      "constant": true
    }
  ],
  "bytecode": "0x608060405234801561001057600080fd5b50336000806101000a81548173ffffffffffffffffffffffffffffffffffffffff021916908373ffffffffffffffffffffffffffffffffffffffff160217905550612714806100606000396000f3fe608060405234801561001057600080fd5b50600436106101005760003560e01c80638a7dc32b11610097578063cb5e8acb11610066578063cb5e8acb1461029f578063df01b764146102bb578063fea43b79146102ed578063feed14df1461031e57610100565b80638a7dc32b1461022b5780638da5cb5b14610247578063a850c18014610265578063ab9963171461028157610100565b80636e9960c3116100d35780636e9960c31461018d57806375c2f8f0146101ab578063764c8856146101db578063817dbe9f146101f957610100565b80630ed099d314610105578063521eb9da14610135578063557e7a861461015557806361fc813e14610171575b600080fd5b61011f600480360381019061011a919061195f565b61033c565b60405161012c91906119ae565b60405180910390f35b61013d61039a565b60405161014c93929190611ca0565b60405180910390f35b61016f600480360381019061016a9190611cec565b61073b565b005b61018b60048036038101906101869190611d51565b61090a565b005b610195610bcd565b6040516101a29190611da0565b60405180910390f35b6101c560048036038101906101c09190611cec565b610bf6565b6040516101d29190611dbb565b60405180910390f35b6101e3610c9a565b6040516101f091906119ae565b60405180910390f35b610213600480360381019061020e9190611cec565b610ca0565b60405161022293929190611e36565b60405180910390f35b61024560048036038101906102409190611fa9565b610d7f565b005b61024f610eeb565b60405161025c9190611da0565b60405180910390f35b61027f600480360381019061027a919061195f565b610f0f565b005b610289611248565b60405161029691906119ae565b60405180910390f35b6102b960048036038101906102b49190611cec565b61124e565b005b6102d560048036038101906102d09190611cec565b61153a565b6040516102e493929190611e36565b60405180910390f35b61030760048036038101906103029190611ff2565b611619565b604051610315929190612045565b60405180910390f35b61032661173d565b60405161033391906119ae565b60405180910390f35b60006001600084815260200190815260200160002060050160008373ffffffffffffffffffffffffffffffffffffffff1673ffffffffffffffffffffffffffffffffffffffff16815260200190815260200160002054905092915050565b6060806060600080600190505b600454811161043c57600073ffffffffffffffffffffffffffffffffffffffff166002600083815260200190815260200160002060010160009054906101000a900473ffffffffffffffffffffffffffffffffffffffff1673ffffffffffffffffffffffffffffffffffffffff16146104295781806104259061209d565b9250505b80806104349061209d565b9150506103a7565b5060008167ffffffffffffffff81111561045957610458611e7e565b5b6040519080825280602002602001820160405280156104875781602001602082028036833780820191505090505b50905060008267ffffffffffffffff8111156104a6576104a5611e7e565b5b6040519080825280602002602001820160405280156104d957816020015b60608152602001906001900390816104c45790505b50905060008367ffffffffffffffff8111156104f8576104f7611e7e565b5b6040519080825280602002602001820160405280156105265781602001602082028036833780820191505090505b509050600080600190505b600454811161072757600073ffffffffffffffffffffffffffffffffffffffff166002600083815260200190815260200160002060010160009054906101000a900473ffffffffffffffffffffffffffffffffffffffff1673ffffffffffffffffffffffffffffffffffffffff161461071457808583815181106105b8576105b76120e6565b5b6020026020010181815250506002600082815260200190815260200160002060000180546105e590612144565b80601f016020809104026020016040519081016040528092919081815260200182805461061190612144565b801561065e5780601f106106335761010080835404028352916020019161065e565b820191906000526020600020905b81548152906001019060200180831161064157829003601f168201915b5050505050848381518110610676576106756120e6565b5b60200260200101819052506002600082815260200190815260200160002060010160009054906101000a900473ffffffffffffffffffffffffffffffffffffffff168383815181106106cb576106ca6120e6565b5b602002602001019073ffffffffffffffffffffffffffffffffffffffff16908173ffffffffffffffffffffffffffffffffffffffff168152505081806107109061209d565b9250505b808061071f9061209d565b915050610531565b508383839750975097505050505050909192565b60008054906101000a900473ffffffffffffffffffffffffffffffffffffffff1673ffffffffffffffffffffffffffffffffffffffff163373ffffffffffffffffffffffffffffffffffffffff16146107c9576040517f08c379a00000000000000000000000000000000000000000000000000000000081526004016107c0906121c2565b60405180910390fd5b600073ffffffffffffffffffffffffffffffffffffffff166002600083815260200190815260200160002060010160009054906101000a900473ffffffffffffffffffffffffffffffffffffffff1673ffffffffffffffffffffffffffffffffffffffff16141561086f576040517f08c379a00000000000000000000000000000000000000000000000000000000081526004016108669061222e565b60405180910390fd5b60026000828152602001908152602001600020600080820160006108939190611747565b6001820160006101000a81549073ffffffffffffffffffffffffffffffffffffffff02191690556001820160146101000a81549060ff021916905550507f69cb719a6efd90bc1ef83ee1115b795dc40e0f5d7320a3aa1dfbdd82a770671d816040516108ff91906119ae565b60405180910390a150565b6001600083815260200190815260200160002060010160149054906101000a900460ff1661096d576040517f08c379a00000000000000000000000000000000000000000000000000000000081526004016109649061229a565b60405180910390fd5b6001600083815260200190815260200160002060030160003373ffffffffffffffffffffffffffffffffffffffff1673ffffffffffffffffffffffffffffffffffffffff16815260200190815260200160002060009054906101000a900460ff16610a0d576040517f08c379a0000000000000000000000000000000000000000000000000000000008152600401610a0490612306565b60405180910390fd5b60006001600084815260200190815260200160002060050160003373ffffffffffffffffffffffffffffffffffffffff1673ffffffffffffffffffffffffffffffffffffffff16815260200190815260200160002054905060405180604001604052808315158152602001428152506001600085815260200190815260200160002060040160003373ffffffffffffffffffffffffffffffffffffffff1673ffffffffffffffffffffffffffffffffffffffff168152602001908152602001600020600083815260200190815260200160002060008201518160000160006101000a81548160ff021916908315150217905550602082015181600101559050506001600084815260200190815260200160002060050160003373ffffffffffffffffffffffffffffffffffffffff1673ffffffffffffffffffffffffffffffffffffffff1681526020019081526020016000206000815480929190610b719061209d565b91905055503373ffffffffffffffffffffffffffffffffffffffff167fa35b9f0b85df0ed76d7c5c596c4d723b414714711906f27a7b390e2cfd097ce6848442604051610bc093929190612326565b60405180910390a2505050565b60008060009054906101000a900473ffffffffffffffffffffffffffffffffffffffff16905090565b606060016000838152602001908152602001600020600201805480602002602001604051908101604052809291908181526020018280548015610c8e57602002820191906000526020600020905b8160009054906101000a900473ffffffffffffffffffffffffffffffffffffffff1673ffffffffffffffffffffffffffffffffffffffff1681526020019060010190808311610c44575b50505050509050919050565b60045481565b6001602052806000526040600020600091509050806000018054610cc390612144565b80601f0160208091040260200160405190810160405280929190818152602001828054610cef90612144565b8015610d3c5780601f10610d1157610100808354040283529160200191610d3c565b820191906000526020600020905b815481529060010190602001808311610d1f57829003601f168201915b5050505050908060010160009054906101000a900473ffffffffffffffffffffffffffffffffffffffff16908060010160149054906101000a900460ff16905083565b6000815111610dc3576040517f08c379a0000000000000000000000000000000000000000000000000000000008152600401610dba906123a9565b60405180910390fd5b60046000815480929190610dd69061209d565b919050555060405180606001604052808281526020013373ffffffffffffffffffffffffffffffffffffffff168152602001600015158152506002600060045481526020019081526020016000206000820151816000019080519060200190610e40929190611787565b5060208201518160010160006101000a81548173ffffffffffffffffffffffffffffffffffffffff021916908373ffffffffffffffffffffffffffffffffffffffff16021790555060408201518160010160146101000a81548160ff0219169083151502179055509050507f5108aab9cb8ccaa5825606ac7491a0d7f06c1854b7c8110b0ffb012d407f8c646004548233604051610ee0939291906123c9565b60405180910390a150565b60008054906101000a900473ffffffffffffffffffffffffffffffffffffffff1681565b816001600082815260200190815260200160002060010160009054906101000a900473ffffffffffffffffffffffffffffffffffffffff1673ffffffffffffffffffffffffffffffffffffffff163373ffffffffffffffffffffffffffffffffffffffff1614610fb4576040517f08c379a0000000000000000000000000000000000000000000000000000000008152600401610fab90612479565b60405180910390fd5b6001600084815260200190815260200160002060010160149054906101000a900460ff16611017576040517f08c379a000000000000000000000000000000000000000000000000000000000815260040161100e906124e5565b60405180910390fd5b600073ffffffffffffffffffffffffffffffffffffffff168273ffffffffffffffffffffffffffffffffffffffff161415611087576040517f08c379a000000000000000000000000000000000000000000000000000000000815260040161107e90612551565b60405180910390fd5b6001600084815260200190815260200160002060030160008373ffffffffffffffffffffffffffffffffffffffff1673ffffffffffffffffffffffffffffffffffffffff16815260200190815260200160002060009054906101000a900460ff1615611128576040517f08c379a000000000000000000000000000000000000000000000000000000000815260040161111f906125bd565b60405180910390fd5b600180600085815260200190815260200160002060030160008473ffffffffffffffffffffffffffffffffffffffff1673ffffffffffffffffffffffffffffffffffffffff16815260200190815260200160002060006101000a81548160ff02191690831515021790555060016000848152602001908152602001600020600201829080600181540180825580915050600190039060005260206000200160009091909190916101000a81548173ffffffffffffffffffffffffffffffffffffffff021916908373ffffffffffffffffffffffffffffffffffffffff1602179055507fe1cacc7bf04bbbc4acbefdd919648dda3da5378dfdd304a8bf8479ac92cb77e0838360405161123b9291906125dd565b60405180910390a1505050565b60035481565b60008054906101000a900473ffffffffffffffffffffffffffffffffffffffff1673ffffffffffffffffffffffffffffffffffffffff163373ffffffffffffffffffffffffffffffffffffffff16146112dc576040517f08c379a00000000000000000000000000000000000000000000000000000000081526004016112d3906121c2565b60405180910390fd5b600073ffffffffffffffffffffffffffffffffffffffff166002600083815260200190815260200160002060010160009054906101000a900473ffffffffffffffffffffffffffffffffffffffff1673ffffffffffffffffffffffffffffffffffffffff161415611382576040517f08c379a000000000000000000000000000000000000000000000000000000000815260040161137990612652565b60405180910390fd5b600360008154809291906113959061209d565b9190505550600260008281526020019081526020016000206000016001600060035481526020019081526020016000206000019080546113d490612144565b6113df92919061180d565b506002600082815260200190815260200160002060010160009054906101000a900473ffffffffffffffffffffffffffffffffffffffff1660016000600354815260200190815260200160002060010160006101000a81548173ffffffffffffffffffffffffffffffffffffffff021916908373ffffffffffffffffffffffffffffffffffffffff1602179055506001806000600354815260200190815260200160002060010160146101000a81548160ff02191690831515021790555060026000828152602001908152602001600020600080820160006114c19190611747565b6001820160006101000a81549073ffffffffffffffffffffffffffffffffffffffff02191690556001820160146101000a81549060ff021916905550507ff9575409b8626d9eb3844de52489c10f2599a2410a2b3a9be514755c60c8e4ad60035460405161152f91906119ae565b60405180910390a150565b600260205280600052604060002060009150905080600001805461155d90612144565b80601f016020809104026020016040519081016040528092919081815260200182805461158990612144565b80156115d65780601f106115ab576101008083540402835291602001916115d6565b820191906000526020600020905b8154815290600101906020018083116115b957829003601f168201915b5050505050908060010160009054906101000a900473ffffffffffffffffffffffffffffffffffffffff16908060010160149054906101000a900460ff16905083565b6000806001600086815260200190815260200160002060050160008573ffffffffffffffffffffffffffffffffffffffff1673ffffffffffffffffffffffffffffffffffffffff1681526020019081526020016000205483106116b1576040517f08c379a00000000000000000000000000000000000000000000000000000000081526004016116a8906126be565b60405180910390fd5b60006001600087815260200190815260200160002060040160008673ffffffffffffffffffffffffffffffffffffffff1673ffffffffffffffffffffffffffffffffffffffff168152602001908152602001600020600085815260200190815260200160002090508060000160009054906101000a900460ff1681600101549250925050935093915050565b6000600354905090565b50805461175390612144565b6000825580601f106117655750611784565b601f016020900490600052602060002090810190611783919061189a565b5b50565b82805461179390612144565b90600052602060002090601f0160209004810192826117b557600085556117fc565b82601f106117ce57805160ff19168380011785556117fc565b828001600101855582156117fc579182015b828111156117fb5782518255916020019190600101906117e0565b5b509050611809919061189a565b5090565b82805461181990612144565b90600052602060002090601f01602090048101928261183b5760008555611889565b82601f1061184c5780548555611889565b8280016001018555821561188957600052602060002091601f016020900482015b8281111561188857825482559160010191906001019061186d565b5b509050611896919061189a565b5090565b5b808211156118b357600081600090555060010161189b565b5090565b6000604051905090565b600080fd5b600080fd5b6000819050919050565b6118de816118cb565b81146118e957600080fd5b50565b6000813590506118fb816118d5565b92915050565b600073ffffffffffffffffffffffffffffffffffffffff82169050919050565b600061192c82611901565b9050919050565b61193c81611921565b811461194757600080fd5b50565b60008135905061195981611933565b92915050565b60008060408385031215611976576119756118c1565b5b6000611984858286016118ec565b92505060206119958582860161194a565b9150509250929050565b6119a8816118cb565b82525050565b60006020820190506119c3600083018461199f565b92915050565b600081519050919050565b600082825260208201905092915050565b6000819050602082019050919050565b6119fe816118cb565b82525050565b6000611a1083836119f5565b60208301905092915050565b6000602082019050919050565b6000611a34826119c9565b611a3e81856119d4565b9350611a49836119e5565b8060005b83811015611a7a578151611a618882611a04565b9750611a6c83611a1c565b925050600181019050611a4d565b5085935050505092915050565b600081519050919050565b600082825260208201905092915050565b6000819050602082019050919050565b600081519050919050565b600082825260208201905092915050565b60005b83811015611aed578082015181840152602081019050611ad2565b83811115611afc576000848401525b50505050565b6000601f19601f8301169050919050565b6000611b1e82611ab3565b611b288185611abe565b9350611b38818560208601611acf565b611b4181611b02565b840191505092915050565b6000611b588383611b13565b905092915050565b6000602082019050919050565b6000611b7882611a87565b611b828185611a92565b935083602082028501611b9485611aa3565b8060005b85811015611bd05784840389528151611bb18582611b4c565b9450611bbc83611b60565b925060208a01995050600181019050611b98565b50829750879550505050505092915050565b600081519050919050565b600082825260208201905092915050565b6000819050602082019050919050565b611c1781611921565b82525050565b6000611c298383611c0e565b60208301905092915050565b6000602082019050919050565b6000611c4d82611be2565b611c578185611bed565b9350611c6283611bfe565b8060005b83811015611c93578151611c7a8882611c1d565b9750611c8583611c35565b925050600181019050611c66565b5085935050505092915050565b60006060820190508181036000830152611cba8186611a29565b90508181036020830152611cce8185611b6d565b90508181036040830152611ce28184611c42565b9050949350505050565b600060208284031215611d0257611d016118c1565b5b6000611d10848285016118ec565b91505092915050565b60008115159050919050565b611d2e81611d19565b8114611d3957600080fd5b50565b600081359050611d4b81611d25565b92915050565b60008060408385031215611d6857611d676118c1565b5b6000611d76858286016118ec565b9250506020611d8785828601611d3c565b9150509250929050565b611d9a81611921565b82525050565b6000602082019050611db56000830184611d91565b92915050565b60006020820190508181036000830152611dd58184611c42565b905092915050565b600082825260208201905092915050565b6000611df982611ab3565b611e038185611ddd565b9350611e13818560208601611acf565b611e1c81611b02565b840191505092915050565b611e3081611d19565b82525050565b60006060820190508181036000830152611e508186611dee565b9050611e5f6020830185611d91565b611e6c6040830184611e27565b949350505050565b600080fd5b600080fd5b7f4e487b7100000000000000000000000000000000000000000000000000000000600052604160045260246000fd5b611eb682611b02565b810181811067ffffffffffffffff82111715611ed557611ed4611e7e565b5b80604052505050565b6000611ee86118b7565b9050611ef48282611ead565b919050565b600067ffffffffffffffff821115611f1457611f13611e7e565b5b611f1d82611b02565b9050602081019050919050565b82818337600083830152505050565b6000611f4c611f4784611ef9565b611ede565b905082815260208101848484011115611f6857611f67611e79565b5b611f73848285611f2a565b509392505050565b600082601f830112611f9057611f8f611e74565b5b8135611fa0848260208601611f39565b91505092915050565b600060208284031215611fbf57611fbe6118c1565b5b600082013567ffffffffffffffff811115611fdd57611fdc6118c6565b5b611fe984828501611f7b565b91505092915050565b60008060006060848603121561200b5761200a6118c1565b5b6000612019868287016118ec565b935050602061202a8682870161194a565b925050604061203b868287016118ec565b9150509250925092565b600060408201905061205a6000830185611e27565b612067602083018461199f565b9392505050565b7f4e487b7100000000000000000000000000000000000000000000000000000000600052601160045260246000fd5b60006120a8826118cb565b91507fffffffffffffffffffffffffffffffffffffffffffffffffffffffffffffffff8214156120db576120da61206e565b5b600182019050919050565b7f4e487b7100000000000000000000000000000000000000000000000000000000600052603260045260246000fd5b7f4e487b7100000000000000000000000000000000000000000000000000000000600052602260045260246000fd5b6000600282049050600182168061215c57607f821691505b602082108114156121705761216f612115565b5b50919050565b7f636869206164646d696e206475796574206c6f706c6f70000000000000000000600082015250565b60006121ac601783611ddd565b91506121b782612176565b602082019050919050565b600060208201905081810360008301526121db8161219f565b9050919050565b7f6c6f70206b686f6e6720746f6e20746169746169000000000000000000000000600082015250565b6000612218601483611ddd565b9150612223826121e2565b602082019050919050565b600060208201905081810360008301526122478161220b565b9050919050565b7f6c6f7020636875612064756f6320647579657464757965740000000000000000600082015250565b6000612284601883611ddd565b915061228f8261224e565b602082019050919050565b600060208201905081810360008301526122b381612277565b9050919050565b7f62616e20636875612064616e67206b69206c6f70206e616e6179000000000000600082015250565b60006122f0601a83611ddd565b91506122fb826122ba565b602082019050919050565b6000602082019050818103600083015261231f816122e3565b9050919050565b600060608201905061233b600083018661199f565b6123486020830185611e27565b612355604083018461199f565b949350505050565b7f436c617373206e616d652063616e6e6f7420626520656d707479000000000000600082015250565b6000612393601a83611ddd565b915061239e8261235d565b602082019050919050565b600060208201905081810360008301526123c281612386565b9050919050565b60006060820190506123de600083018661199f565b81810360208301526123f08185611dee565b90506123ff6040830184611d91565b949350505050565b7f636869206769616e67207669656e20636f20717579656e206368696e6820737560008201527f61206c6f70206e61796e61790000000000000000000000000000000000000000602082015250565b6000612463602c83611ddd565b915061246e82612407565b604082019050919050565b6000602082019050818103600083015261249281612456565b9050919050565b7f6c6f7020636875612064756f6320706865206475796574647579657400000000600082015250565b60006124cf601c83611ddd565b91506124da82612499565b602082019050919050565b600060208201905081810360008301526124fe816124c2565b9050919050565b7f646961206368692073696e68207669656e206b686f6e6720686f70206c656c65600082015250565b600061253b602083611ddd565b915061254682612505565b602082019050919050565b6000602082019050818103600083015261256a8161252e565b9050919050565b7f73696e68207669656e20646120636f2074726f6e67206c6f706c6f7000000000600082015250565b60006125a7601c83611ddd565b91506125b282612571565b602082019050919050565b600060208201905081810360008301526125d68161259a565b9050919050565b60006040820190506125f2600083018561199f565b6125ff6020830184611d91565b9392505050565b7f436c617373206e6f7420666f756e640000000000000000000000000000000000600082015250565b600061263c600f83611ddd565b915061264782612606565b602082019050919050565b6000602082019050818103600083015261266b8161262f565b9050919050565b7f496e6465782076756f74207175612067696f692068616e000000000000000000600082015250565b60006126a8601783611ddd565b91506126b382612672565b602082019050919050565b600060208201905081810360008301526126d78161269b565b905091905056fea264697066735822122042faf404b2999fc80e1b6d50e9faabef4833378b2816aabfcc993b2a491de02464736f6c63430008080033",
  "immutableReferences": {},
  "source": "// SPDX-License-Identifier: MIT\r\npragma solidity ^0.8.8;\r\n\r\ncontract AttendanceSystem {\r\n    address public owner;\r\n\r\n    struct Attendance {\r\n        bool isPresent;\r\n        uint256 timestamp;\r\n    }\r\n\r\n    struct Class {\r\n        string name;\r\n        address teacher;\r\n        bool isApproved;\r\n        address[] studentList;\r\n        mapping(address => bool) students;\r\n        mapping(address => mapping(uint256 => Attendance)) attendanceRecords;\r\n        mapping(address => uint256) attendanceCount;\r\n    }\r\n\r\n    struct PendingClass {\r\n        string name;\r\n        address teacher;\r\n        bool isApproved; // Trng thi ph duyt\r\n    }\r\n\r\n    mapping(uint256 => Class) public classes;\r\n    mapping(uint256 => PendingClass) public pendingClasses;\r\n\r\n    uint256 public classCount;\r\n    uint256 public pendingClassCount;\r\n\r\n    event ClassPending(uint256 classId, string name, address teacher);\r\n    event ClassApproved(uint256 classId);\r\n    event ClassRejected(uint256 classId);\r\n    event StudentAdded(uint256 classId, address student);\r\n    event AttendanceMarked(uint256 classId, address indexed user, bool isPresent, uint256 timestamp);\r\n\r\n    constructor() {\r\n        owner = msg.sender;\r\n    }\r\n\r\n    modifier onlyAdmin() {\r\n        require(msg.sender == owner, \"chi addmin duyet loplop\");\r\n        _;\r\n    }\r\n\r\n    modifier onlyTeacher(uint256 classId) {\r\n        require(msg.sender == classes[classId].teacher, \"chi giang vien co quyen chinh sua lop naynay\");\r\n        _;\r\n    }\r\n\r\nfunction createClass(string memory _name) public {\r\n    require(bytes(_name).length > 0, \"Class name cannot be empty\");\r\n\r\n    pendingClassCount++;\r\n   pendingClasses[pendingClassCount] = PendingClass({\r\n    name: _name,\r\n    teacher: msg.sender,\r\n    isApproved: false  // Thm gi tr cho bin isApproved\r\n});\r\n\r\n    emit ClassPending(pendingClassCount, _name, msg.sender);\r\n}\r\n\r\nfunction getPendingClasses() public view returns (uint256[] memory, string[] memory, address[] memory) {\r\n    uint256 validCount = 0;\r\n\r\n    // m s lp hp l\r\n    for (uint256 i = 1; i <= pendingClassCount; i++) {\r\n        if (pendingClasses[i].teacher != address(0)) {\r\n            validCount++;\r\n        }\r\n    }\r\n\r\n    // Khai bo mng trong phm vi function\r\n    uint256[] memory ids = new uint256[](validCount);\r\n    string[] memory names = new string[](validCount);\r\n    address[] memory teachers = new address[](validCount);\r\n\r\n    uint256 index = 0;\r\n    for (uint256 i = 1; i <= pendingClassCount; i++) {\r\n        if (pendingClasses[i].teacher != address(0)) {\r\n            ids[index] = i;\r\n            names[index] = pendingClasses[i].name;\r\n            teachers[index] = pendingClasses[i].teacher;\r\n            index++;\r\n        }\r\n    }\r\n\r\n    return (ids, names, teachers);\r\n}\r\n\r\n\r\nfunction approveClass(uint256 _pendingClassId) public onlyAdmin {\r\n    require(pendingClasses[_pendingClassId].teacher != address(0), \"Class not found\");\r\n\r\n    classCount++;\r\n    classes[classCount].name = pendingClasses[_pendingClassId].name;\r\n    classes[classCount].teacher = pendingClasses[_pendingClassId].teacher;\r\n    classes[classCount].isApproved = true;\r\n\r\n    delete pendingClasses[_pendingClassId];\r\n\r\n    emit ClassApproved(classCount);\r\n}\r\n    \r\n    function getAdmin() public view returns (address) {\r\n    return owner;\r\n}\r\n\r\n\r\n    function rejectClass(uint256 _pendingClassId) public onlyAdmin {\r\n        require(pendingClasses[_pendingClassId].teacher != address(0), \"lop khong ton taitai\");\r\n\r\n        delete pendingClasses[_pendingClassId];\r\n\r\n        emit ClassRejected(_pendingClassId);\r\n    }\r\n\r\n    function addStudent(uint256 _classId, address _student) public onlyTeacher(_classId) {\r\n        require(classes[_classId].isApproved, \"lop chua duoc phe duyetduyet\");\r\n        require(_student != address(0), \"dia chi sinh vien khong hop lele\");\r\n        require(!classes[_classId].students[_student], \"sinh vien da co trong loplop\");\r\n\r\n        classes[_classId].students[_student] = true;\r\n        classes[_classId].studentList.push(_student);\r\n\r\n        emit StudentAdded(_classId, _student);\r\n    }\r\n\r\n    function markAttendance(uint256 _classId, bool _isPresent) public {\r\n        require(classes[_classId].isApproved, \"lop chua duoc duyetduyet\");\r\n        require(classes[_classId].students[msg.sender], \"ban chua dang ki lop nanay\");\r\n\r\n        uint256 count = classes[_classId].attendanceCount[msg.sender];\r\n        classes[_classId].attendanceRecords[msg.sender][count] = Attendance(_isPresent, block.timestamp);\r\n        classes[_classId].attendanceCount[msg.sender]++;\r\n\r\n        emit AttendanceMarked(_classId, msg.sender, _isPresent, block.timestamp);\r\n    }\r\n\r\n    function getAttendanceCount(uint256 _classId, address _student) public view returns (uint256) {\r\n        return classes[_classId].attendanceCount[_student];\r\n    }\r\n\r\n    function getAttendanceRecord(uint256 _classId, address _student, uint256 index) public view returns (bool, uint256) {\r\n        require(index < classes[_classId].attendanceCount[_student], \"Index vuot qua gioi han\");\r\n\r\n        Attendance storage record = classes[_classId].attendanceRecords[_student][index];\r\n        return (record.isPresent, record.timestamp);\r\n    }\r\n\r\n    function getStudents(uint256 _classId) public view returns (address[] memory) {\r\n        return classes[_classId].studentList;\r\n    }\r\n\r\n    function getTotalClasses() public view returns (uint256) {\r\n        return classCount;\r\n    }\r\n}\r\n",
  "sourcePath": "C:\\Users\\Trang\\Downloads\\attendance-system (2)\\contracts\\AttendanceSystem.sol",
  "compiler": {
    "name": "solc",
    "version": "0.8.8+commit.dddeac2f.Emscripten.clang"
  },
  "schemaVersion": "3.4.16",
  "updatedAt": "2025-03-14T15:10:00.726Z",
  "networkType": "ethereum",
  "devdoc": {
    "kind": "dev",
    "methods": {},
    "version": 1
  },
  "userdoc": {
    "kind": "user",
    "methods": {},
    "version": 1
  }
}